:020000040800F2
:1000000000280020B1180008EB010008ED010008ED
:10001000EF010008F1010008F301000800000000F2
:10002000000000000000000000000000F5010008D2
:10003000F701000800000000F9010008FD010008B8
:10004000F9180008F9180008F9180008F91800084C
:10005000F9180008F9180008F9180008F91800083C
:10006000F9180008F9180008F9180008F91800082C
:10007000F9180008F9180008F9180008F91800081C
:10008000F9180008F9180008F9180008F91800080C
:10009000F9180008F9180008F91800080902000802
:1000A000F91800081D020008F918000831020008BC
:1000B000F9180008F918000800000000F9180008F5
:1000C000F91800080000000000000000F9180008FE
:1000D00000000000F9180008F918000800000000EE
:1000E00045020008F9180008F9180008000000008F
:1000F0000000000000000000000000000000000000
:0C01000000000000000000005FF808F1A3
:10010C0010B5054C237833B9044B13B10448AFF345
:10011C0000800123237010BD1C0000200000000093
:10012C005419000808B5034B1BB103490348AFF33E
:10013C00008008BD000000002000002054190008B9
:10014C0010B590B02422002107A80F4B984700242B
:10015C0001940294039404940594022306930123BE
:10016C000A9310230B930D9406A8084B98470F2362
:10017C0001930294039404940594214601A8044B22
:10018C00984710B010BD00BF45190008750B00084A
:10019C00FD0F000808B5094B9847094B9847094BC8
:1001AC009847094B9847094C2046094B9847002122
:1001BC002046084B9847084B9847FEE7F50A00087D
:1001CC004D010008D51500089114000860000020AE
:1001DC008D030008F1080008E91600087047704705
:1001EC00FEE7FEE7FEE7FEE770477047704700004A
:1001FC0008B5014B984708BD250B000810B54020E9
:10020C00024CA0478020A04710BD00BF99130008E6
:10021C0008B50248024B984708BD00BF600000209B
:10022C00F903000808B50248024B984708BD00BF07
:10023C0060000020F903000808B54FF48050014B12
:10024C00984708BD9913000882B00E4B9A6942F08A
:10025C0001029A619A6902F001020092009ADA692D
:10026C0042F08052DA61DB6903F080530193019B09
:10027C00054A536823F0E06343F08063536002B097
:10028C00704700BF001002400000014030B4036A08
:10029C00056A25F001050562846924F0F00444EA3E
:1002AC00021423F00A030B438461036230BC7047D1
:1002BC0030B4056A25F0100505628469056A24F4DA
:1002CC00407444EA022424F470441B039BB223437D
:1002DC0025F0A005090101F0A00129438361016209
:1002EC0030BC704730B4056A25F01005056284698E
:1002FC00036A24F4704444EA023423F0A00343EA72
:10030C0001138461036230BC704730B4056A25F474
:10031C0080750562C469056A24F00304144324F053
:10032C00F0041B01DBB2234325F40075090201F430
:10033C0000712943C361016230BC704730B4056A57
:10034C0025F480550562C469056A24F4407444EAB6
:10035C00022424F470441B039BB2234325F4005560
:10036C00090301F400512943C361016230BC704799
:10037C00836823F070030B4343F0070383607047DB
:10038C0090F83D30DBB2012B23D1022380F83D30B5
:10039C000268D36843F00103D36003680F4A9342A9
:1003AC000CD0B3F1804F09D0A2F59432934205D012
:1003BC001A6842F001021A60002070479A6802F035
:1003CC000702062A07D01A6842F001021A600020C0
:1003DC007047012070470020704700BF002C01407F
:1003EC0070477047704770477047000010B504465F
:1003FC0003681A6912F0020F11D0DA6812F0020FBA
:10040C000DD06FF002021A610123037703689B6918
:10041C0013F0030F70D0544B9847002323772368B5
:10042C001A6912F0040F12D0DA6812F0040F0ED011
:10043C006FF004021A610223237723689B6913F47B
:10044C00407F5FD02046484B984700232377236892
:10045C001A6912F0080F12D0DA6812F0080F0ED0D9
:10046C006FF008021A61042323772368DB6913F009
:10047C00030F4ED020463C4B98470023237723682C
:10048C001A6912F0100F12D0DA6812F0100F0ED099
:10049C006FF010021A61082323772368DB6913F4C9
:1004AC00407F3DD02046304B98470023237723686C
:1004BC001A6912F0010F03D0DA6812F0010F36D16D
:1004CC0023681A6912F0800F03D0DA6812F0800FDB
:1004DC0034D123681A6912F0400F03D0DA6812F095
:1004EC00400F32D123681A6912F0200F03D0DA685A
:1004FC0012F0200F30D110BD1C4B984720461C4BDE
:10050C0098478AE72046194B98472046184B98473E
:10051C009BE72046154B98472046154B9847ACE770
:10052C002046124B98472046114B9847BDE76FF079
:10053C0001021A6120460F4B9847C1E76FF0800209
:10054C001A6120460C4B9847C3E76FF040021A61C2
:10055C0020460A4B9847C5E76FF020021A612046E7
:10056C00074B9847C7E700BFF1030008EF030008EB
:10057C00F3030008B51700089F0A0008F5030008EC
:10058C009D0A00080368174A904206D0B0F1804FCC
:10059C0003D0A2F59432904203D123F070034A6841
:1005AC001343104A904206D0B0F1804F03D0A2F50D
:1005BC009432904203D123F44073CA68134323F05E
:1005CC0080034A69134303608B68C3620B688362C0
:1005DC00044B984202D00123436170470B690363BB
:1005EC00F9E700BF002C014040B310B5044690F869
:1005FC003D30F3B1022384F83D30214651F8040B11
:10060C000F4B9847012384F8463084F83E3084F829
:10061C003F3084F8403084F8413084F8423084F81C
:10062C00433084F8443084F8453084F83D30002061
:10063C0010BD80F83C30034B9847DBE70120704736
:10064C00910500084D15000840B310B5044690F80C
:10065C003D30F3B1022384F83D30214651F8040BB0
:10066C000F4B9847012384F8463084F83E3084F8C9
:10067C003F3084F8403084F8413084F8423084F8BC
:10068C00433084F8443084F8453084F83D30002001
:10069C0010BD80F83C30034B9847DBE701207047D6
:1006AC0091050008ED03000870B4046A24F00104FD
:1006BC0004628469056A0F4EB04209D0B0F1804FD4
:1006CC0006D0A6F59436B04202D044F0010202E006
:1006DC0024F00304224322F0F0021B01DBB213438B
:1006EC0025F00A0201F00A0111438361016270BC1A
:1006FC00704700BF002C014090F83C30012B53D0C8
:10070C0070B504460D46012380F83C30C2B1042A72
:10071C0027D0082A37D0CB684A6809680068234E6E
:10072C00B0472268D36923F44063D3612268D3694C
:10073C00A96843EA0123D361002084F83C0070BD12
:10074C00CB684A6809680068194EB04722689369FB
:10075C0023F00C03936122689369A9680B4393619E
:10076C00EAE7CB684A6809680068124EB04722680D
:10077C00936923F44063936122689369A96843EAFF
:10078C0001239361D8E7CB684A68096800680A4E70
:10079C00B0472268D36923F00C03D3612268D36974
:1007AC00A9680B43D361C7E70220704749030008CF
:1007BC00B5060008BD0200081703000810B48468D1
:1007CC0024F47F4442EA03220A432243826010BC91
:1007DC007047000038B590F83C30012B65D00446CA
:1007EC00012380F83C30022380F83D300268936886
:1007FC0023F47F4323F0770393600B68602B40D086
:10080C0022D8402B47D00BD9502B0ED1CA6849683F
:10081C000068274B984750212068264B984704E0E6
:10082C00202B0CD008D9302B09D0012384F83D3073
:10083C00002084F83C0038BD0BB1102BF5D11946C3
:10084C0020681C4B9847F0E7702B0ED0B3F5005F77
:10085C00EBD1CB684A6889680068174DA8472268B5
:10086C00936843F480439360DFE7CB684A688968F8
:10087C000068114DA8472268936843F07703936092
:10088C00D3E7CA68496800680C4B98476021206818
:10089C00084B9847C9E7CA6849680068044B9847F1
:1008AC0040212068034B9847BFE70220C3E700BFF5
:1008BC00990200087D030008C9070008F10200082E
:1008CC0010B401F01F01012303FA01F4036A23EAB7
:1008DC0004030362036A02FA01F10B43036210BCC6
:1008EC007047000010B504460B4601BB90F83E0063
:1008FC00C0B263BB94F84220D2B2012840F08F8082
:10090C00012A40F08D8093BB022284F83E20002BFC
:10091C003DD1022284F842200C2B4DD8DFE803F0A5
:10092C00474C4C4C624C4C4C684C4C4C6E00042963
:10093C0005D0082907D090F84100C0B2D9E790F84B
:10094C003F00C0B2D5E790F84000C0B2D1E7042B0D
:10095C0005D0082B07D094F84520D2B2CDE794F8F7
:10096C004320D2B2C9E794F84420D2B2C5E7042B95
:10097C0005D0082B07D0022284F84120C7E70222B9
:10098C0084F83F20C3E7022284F84020BFE7042B01
:10099C0005D0082B07D0022284F84520BCE70222A0
:1009AC0084F84320B8E7022284F84420B4E7216895
:1009BC00CA6842F00202CA600122194620681A4B2A
:1009CC0098472368194A93421ED0B3F1804F1BD02D
:1009DC00A2F59432934217D01A6842F001021A60C1
:1009EC0000201DE02168CA6842F00402CA60E3E7F7
:1009FC002168CA6842F00802CA60DDE72168CA684B
:100A0C0042F01002CA60D7E79A6802F00702062A81
:100A1C0007D01A6842F001021A60002000E00120A1
:100A2C0010BD0020FCE700BFCD080008002C0140E1
:100A3C0090F83C30012B27D030B4012380F83C30A7
:100A4C00022380F83D3003685C689D6824F07004D4
:100A5C000A6822435A6003680C4A934206D0B3F1E9
:100A6C00804F03D0A2F59432934204D125F0800537
:100A7C004A6815439D60012380F83D30002380F8BF
:100A8C003C30184630BC704702207047002C0140A7
:100A9C007047704710B504460E4B18784FF47A73B4
:100AAC00B3FBF0F30C4A1068B0FBF3F00B4B984718
:100ABC0068B90F2C01D901200AE0002221464FF021
:100ACC00FF30074B9847074B1C60002000E00120CB
:100ADC0010BD00BF000000200800002061140008B9
:100AEC00DD1300080400002008B5074A136843F022
:100AFC00100313600320054B98470020044B9847C4
:100B0C00044B9847002008BD00200240B913000890
:100B1C00A10A000855020008034A1168034B1B7810
:100B2C000B441360704700BF5C00002000000020E5
:100B3C00014B1868704700BF5C00002082B0084B66
:100B4C001B68084AA2FB03235B0A00FB03F3019317
:100B5C0000BF019B5A1E0192002BF9D102B07047C5
:100B6C0008000020D34D6210002800F0F58170B50C
:100B7C0082B00446036813F0010F2CD0984B5B68CD
:100B8C0003F00C03042B1DD0954B5B6803F00C0396
:100B9C00082B12D06368B3F5803F41D0002B55D1A0
:100BAC0003F1804303F504331A6822F480321A608F
:100BBC001A6822F480221A6037E0894B5B6813F4C0
:100BCC00803FE7D0864B1B6813F4003F03D063686B
:100BDC00002B00F0C381236813F0020F75D0804BFB
:100BEC005B6813F00C0F5FD07D4B5B6803F00C035C
:100BFC00082B54D02369002B00F08980794B0122FB
:100C0C001A60794B98470546754B1B6813F0020F19
:100C1C0074D1754B9847401B0228F5D90320A2E1EB
:100C2C006F4A136843F480331360636843B36E4BAD
:100C3C00984705466A4B1B6813F4003FCBD16A4BAF
:100C4C009847401B6428F5D903208CE1B3F5A02FFD
:100C5C0009D0634B1A6822F480321A601A6822F4A5
:100C6C0080221A60E1E703F18043A3F53C331A6854
:100C7C0042F480221A601A6842F480321A60D4E777
:100C8C00594B98470546564B1B6813F4003FA2D0AE
:100C9C00554B9847401B6428F5D9032063E1504B12
:100CAC005B6813F4803FA5D14D4B1B6813F0020F0A
:100CBC0003D02369012B40F05381494A136823F078
:100CCC00F803616943EAC1031360236813F0080F4A
:100CDC0032D0A369002B45D0444B01221A60424B01
:100CEC00984705463E4B5B6A13F0020F21D13E4BF1
:100CFC009847401B0228F5D9032034E1384A136881
:100D0C0023F0F803616943EAC1031360DDE7354B57
:100D1C0000221A60344B98470546314B1B6813F080
:100D2C00020FD2D0304B9847401B0228F5D9032034
:100D3C0019E101202E4B9847236813F0040F00F0A3
:100D4C009B80274BDB6913F0805F1DD1244BDA6944
:100D5C0042F08052DA61DB6903F080530193019B0E
:100D6C00012512E0214B00221A601F4B98470546C3
:100D7C001B4B5B6A13F0020FDED01B4B9847401BDA
:100D8C000228F5D90320EEE000251A4B1B6813F45A
:100D9C00807F11D0E368012B2ED0002B44D103F1BE
:100DAC00804303F504331A6A22F001021A621A6AAC
:100DBC0022F004021A6224E00E4A136843F4807392
:100DCC001360094B984706460A4B1B6813F4807F47
:100DDC00E0D1054B9847801B6428F5D90320C2E06D
:100DEC0000100240000042423D0B000880044242C9
:100DFC00490B0008007000405F4A136A43F001037E
:100E0C001362E36833B35D4B984706465A4B1B6A33
:100E1C0013F0020F2FD1594B9847801B41F28833A6
:100E2C009842F3D903209EE0052B09D0524B1A6A45
:100E3C0022F001021A621A6A22F004021A62E0E736
:100E4C004D4B1A6A42F004021A621A6A42F001020D
:100E5C001A62D6E7494B98470646474B1B6A13F074
:100E6C00020F08D0454B9847801B41F288339842BB
:100E7C00F3D9032077E0E5B9E369002B72D03E4A41
:100E8C00526802F00C02082A56D0022B17D03C4BA9
:100E9C0000221A60394B98470446374B1B6813F0F5
:100EAC00007F47D0354B9847001B0228F5D903200B
:100EBC0059E0314AD36923F08053D361DCE7304BDE
:100ECC0000221A602D4B984705462B4B1B6813F0DC
:100EDC00007F06D0294B9847401B0228F5D90320E8
:100EEC0041E0236AB3F5803F1AD023494B6823F4C1
:100EFC007413226A606A024313434B60204B012235
:100F0C001A601E4B984704461B4B1B6813F0007F5E
:100F1C000ED11A4B9847001B0228F5D9032022E06A
:100F2C00154A536823F40033A1680B435360DCE784
:100F3C00002018E0002016E0012B16D00E4B5B6849
:100F4C0003F48031226A914211D103F47013626A66
:100F5C0093420ED1002006E001207047012002E0F0
:100F6C00012000E0002002B070BD0120FBE7012051
:100F7C00F9E70120F7E700BF001002403D0B000825
:100F8C006000424286B0164B0FCB0DF1180C0CE9E9
:100F9C000F0040F20123ADF80430124B5B6803F0F4
:100FAC000C02082A02D0104806B07047C3F38342E3
:100FBC00624412F8102C13F4803F0CD0094B5B6880
:100FCC00C3F34043634413F8143C074800FB02F09E
:100FDC00B0FBF3F0E8E7054800FB02F0E4E700BFE4
:100FEC006C1900080010024000127A0000093D0044
:100FFC00002800F0A08070B50D460446524B1B68CB
:10100C0003F007038B420BD24F4A136823F00703FC
:10101C000B431360136803F007038B4240F08D8081
:10102C00236813F0020F17D013F0040F04D0474AB3
:10103C00536843F4E0635360236813F0080F04D043
:10104C00424A536843F460535360404A536823F058
:10105C00F003A1680B435360236813F0010F31D0E8
:10106C006368012B20D0022B25D0384A126812F06D
:10107C00020F64D035494A6822F0030213434B60D7
:10108C00334B98470646314B5B6803F00C036268A0
:10109C00B3EB820F16D02E4B9847801B41F288334E
:1010AC009842F0D9032045E0284A126812F4003F18
:1010BC00E0D101203EE0254A126812F0007FD9D120
:1010CC00012037E0204B1B6803F00703AB420AD921
:1010DC001D4A136823F007032B431360136803F0B6
:1010EC000703AB422DD1236813F0040F06D0174A27
:1010FC00536823F4E063E1680B435360236813F0F7
:10110C00080F07D0114A536823F46053216943EA4E
:10111C00C10353600F4B98470C4B5B68C3F303132D
:10112C000D4AD35CD8400D4B18600D4B18680D4B15
:10113C009847002070BD012070470120FAE701207C
:10114C00F8E70120F6E700BF002002400010024043
:10115C003D0B0008910F00088019000808000020C2
:10116C0004000020A10A0008F0B482B000252C462F
:10117C0086E07D4FBB4210D007D97C4FBB420CD0D0
:10118C0007F58037BB4208D015E0A7F58017BB42A6
:10119C0003D007F57027BB4209D18B68002B00F0F8
:1011AC00B980012B00F0B1804261082503E0A7F55E
:1011BC008017BB42F1D0FF2E00F2AE808446FF2E8A
:1011CC0000F2AD80A200DCF800300F27974023EA34
:1011DC00070305FA02F21343CCF800304B6813F006
:1011EC00805F4CD0624B9A6942F001029A619B6914
:1011FC0003F001030193019BA208971C5D4B53F86C
:10120C00273004F00307BF004FF00F0C0CFA07FC5B
:10121C0023EA0C0C584B984200F0878003F580634E
:10122C00984200F0848003F5806398427BD00323BE
:10123C00BB4043EA0C0302324E4F47F822304B6856
:10124C0013F4803F75D04D4A1368334313604B68D9
:10125C0013F4003F73D0494A5368334353604B68CF
:10126C0013F4801F71D0454A9368334393604B68E5
:10127C0013F4001F6FD0414AD3681E43D66001346B
:10128C000B6833FA04F26CD00122A24003EA020686
:10129C0032EA0303F3D14B68122B3FF66AAF122BE1
:1012AC0089D801A757F823F0A711000801130008EB
:1012BC000B1300081D130008C3110008C31100080C
:1012CC00C3110008C3110008C3110008C3110008A2
:1012DC00C3110008C3110008C3110008C311000892
:1012EC00C3110008C3110008C3110008051300083E
:1012FC0011130008CD685EE7CD6804355BE7CD6857
:10130C00083558E7CD680C3555E70261082552E7DA
:10131C00002550E704254EE700F1040C4FE7A4F13B
:10132C00080292004FE7022382E7002380E70123A3
:10133C007EE7124A136823EA0603136087E70F4A15
:10134C00536823EA0603536089E70C4A936823EA3F
:10135C00060393608BE7094AD36823EA0606D66036
:10136C008DE702B0F0BC7047000022100000311075
:10137C000010024000000140000801400004014040
:10138C000AB10161704709040161704708B5054B4A
:10139C005B69034200D108BD024B5861024B984770
:1013AC00F9E700BF0004014085170008074AD3681D
:1013BC0023F4E0631B041B0C000200F4E060034305
:1013CC0043F0BF6343F40033D360704700ED00E09B
:1013DC0030B4174BDB68C3F30223C3F10704042CAE
:1013EC0028BF04241D1D062D18D9033B4FF0FF35D3
:1013FC0005FA04F421EA0401994005FA03F322EA00
:10140C000303194300280BDB0901C9B200F160404A
:10141C0000F5614080F8001330BC70470023E5E70D
:10142C0000F00F000901C9B2024B1954F4E700BFD8
:10143C0000ED00E014ED00E0002807DB00F01F02D7
:10144C00400901239340024A42F82030704700BF04
:10145C0000E100E00138B0F1807F0AD2064B586001
:10146C00064AF02182F823100020986007221A60A7
:10147C0070470120704700BF10E000E000ED00E075
:10148C007047000000B58BB00023069307930893B8
:10149C0009930493059300930193029303932048BB
:1014AC00204A026040F2E732426083604F22C26001
:1014BC000361436183611C4B984708BB4FF4805315
:1014CC00069306A91648194B9847E0B91448184BCF
:1014DC009847D8B900230493059304A91048154BD9
:1014EC009847B0B900220092012301930292039213
:1014FC0069460B48104B984770B90BB05DF804FB6C
:10150C000E4B9847DAE70D4B9847DFE70B4B9847A4
:10151C00E0E70A4B9847E5E7084B9847EDE700BF33
:10152C0060000020002C0140F5050008E1070008D0
:10153C00550600083D0A000805070008E9010008E7
:10154C0070B586B00023029303930493059302684D
:10155C00184B9A4201D006B070BD03F564439A69EA
:10156C0042F400629A619A6902F400620092009A55
:10157C009A6942F004029A619B6903F00403019397
:10158C00019B4FF48073029300240394049402A9EA
:10159C0009480A4B9847224601211920084EB047AA
:1015AC001920084DA847224621461B20B0471B2076
:1015BC00A847D0E7002C0140000801407511000835
:1015CC00DD130008451400082DE9F04F89B0002404
:1015DC000494059406940794364B9A6942F01002D1
:1015EC009A619A6902F010020192019A9A6942F08A
:1015FC0004029A619A6902F004020292029A9A69B0
:10160C0042F008029A619B6903F008030393039B61
:10161C00294F224640F6FF713846284DA847DFF87F
:10162C00B090224601214846A84740F6FF73049328
:10163C000126059606964FF0020ACDF81CA004A9C7
:10164C0038461F4DA84740230493DFF88880CDF817
:10165C0014800694DFF880B004A95846A84780236C
:10166C000493184B0593069404A95846A84704966E
:10167C0005960696CDF81CA004A94846A8474FF439
:10168C0080530493CDF81480069404A93846A847D7
:10169C002246214617200C4EB04717200B4DA84769
:1016AC00224621462820B0472820A84709B0BDE88B
:1016BC00F08F00BF00100240001001408D13000895
:1016CC007511000800002110DD13000845140008F6
:1016DC00000C01400000111000080140024B1A7868
:1016EC00024BDA60704700BF100000200010014070
:1016FC00194B3C221A600021184B1960184B1960C9
:10170C0001225A609960D960032920DC30B4154A53
:10171C001368013303F003031360134A1348D060BA
:10172C00D0680F4C54F82340114D2C5D2043D060F1
:10173C00D0680833012404FA03F30343D360214433
:10174C000329E4DD0B4B00221A7030BC7047094BA7
:10175C0000221A70704700BF0C00002050000020BF
:10176C0038000020580000200010014000F0FFFF5E
:10177C00100000205400002008B5802809D0B0F5D6
:10178C00805F0AD0402800D008BD054B01221A709A
:10179C00FAE7034B00221A70F6E7024B9847F3E77F
:1017AC004C000020FD1600080268314B1B689A4261
:1017BC0000D0704710B52F4A136801331360642BA7
:1017CC001CD02D4B1B78002B4CD12C4A13680133A9
:1017DC0003F0030313602A4A2A49D160D1682A48CE
:1017EC0050F82300294C205C0143D160D1680833A8
:1017FC00012000FA03F30B43D36010BD1346002203
:10180C001A60234A1368013B136043B913463C2208
:10181C001A60204A1368013B1360002B1BDB1D4B25
:10182C001A681D4981FB0231D317C3EBA10316497A
:10183C000B6003EB8303A2EB43034B60144B1A685E
:10184C00164BA3FB0203DB088B6003EB8303A2EBB9
:10185C004303CB60B5E7134600221A60064B012206
:10186C001A70DCE70E4B9847034B00221A70C4E742
:10187C006000002048000020540000205800002088
:10188C000010014000F0FFFF380000201000002085
:10189C000C0000205000002067666666CDCCCCCCD6
:1018AC00FD160008002103E00B4B5B58435004313C
:1018BC000A480B4B42189A42F6D30A4A02E000231C
:1018CC0042F8043B084B9A42F9D3FFF7D9FD00F0DC
:1018DC000FF8FEF75FFC7047981900080000002015
:1018EC001C0000201C000020A8000020FEE70000C7
:1018FC0070B500260C4D0D4C641BA410A64209D1EA
:10190C0000F022F800260A4D0A4C641BA410A642D3
:10191C0005D170BD55F8043B98470136EEE755F8F4
:10192C00043B98470136F2E790190008901900081B
:10193C00901900089419000803460244934200D100
:10194C00704703F8011BF9E7F8B500BFF8BC08BCF9
:10195C009E467047F8B500BFF8BC08BC9E46704761
:10196C0002030405060708090A0B0C0D0E0F1010D4
:10197C000000000000000000000000000102030451
:04198C000607080939
:041990003101000819
:041994000D01000839
:1019980001000000100000000024F4000500000011
:0C19A80081CF9286CCA4A08F8084000028
:04000005080018B126
:00000001FF
