:020000040800F2
:1000000000280020F1110008D7010008D9010008DC
:10001000DB010008DD010008DF010008000000002E
:10002000000000000000000000000000E1010008E6
:10003000E301000800000000E5010008E9010008F4
:100040003912000839120008391200083912000864
:100050003912000839120008391200083912000854
:100060003912000839120008391200083912000844
:100070003912000839120008391200083912000834
:100080003912000839120008391200083912000824
:100090003912000839120008391200083912000814
:1000A00039120008F5010008391200083912000859
:1000B0003912000839120008000000003912000847
:1000C000391200080000000000000000391200088A
:1000D000000000003912000839120008000000007A
:1000E0003912000839120008391200080000000017
:1000F0000000000000000000000000000000000000
:0C01000000000000000000005FF808F1A3
:10010C0010B5054C237833B9044B13B10448AFF345
:10011C0000800123237010BD0C00002000000000A3
:10012C009412000808B5034B1BB103490348AFF305
:10013C00008008BD00000000100000209412000890
:10014C0010B590B02422002107A80F4B984700242B
:10015C0001940294039404940594022306930123BE
:10016C000A9310230B930D9406A8084B98470F2362
:10017C0001930294039404940594214601A8044B22
:10018C00984710B010BD00BF85120008A9070008E1
:10019C00310C000808B5064B9847064B9847064BA0
:1001AC009847064B98470648064B9847FEE700BF12
:1001BC00290700084D01000899110008B910000822
:1001CC002C000020A902000870477047FEE7FEE7EC
:1001DC00FEE7FEE7704770477047000008B5014B1B
:1001EC00984708BD5907000808B50248024B9847C4
:1001FC0008BD00BF2C0000201103000882B00E4B7C
:10020C009A6942F001029A619A6902F00102009225
:10021C00009ADA6942F08052DA61DB6903F08053AC
:10022C000193019B054A536823F0E06343F080631C
:10023C00536002B0704700BF001002400000014044
:10024C0030B4036A056A25F001050562846924F05F
:10025C00F00444EA021423F00A030B4384610362A2
:10026C0030BC704730B4056A25F01005056284690E
:10027C00036A24F4704444EA023423F0A00343EAF2
:10028C0001138461036230BC7047836823F07003F0
:10029C000B4343F0070383607047000090F83D3038
:1002AC00DBB2012B23D1022380F83D300268D368E6
:1002BC0043F00103D36003680F4A93420CD0B3F1AF
:1002CC00804F09D0A2F59432934205D01A6842F0BF
:1002DC0001021A60002070479A6802F00702062A91
:1002EC0007D01A6842F001021A6000207047012002
:1002FC0070470020704700BF002C014070477047CA
:10030C007047704710B5044603681A6912F0020F63
:10031C0011D0DA6812F0020F0DD06FF002021A61E0
:10032C000123037703689B6913F0030F70D0544BC0
:10033C0098470023237723681A6912F0040F12D010
:10034C00DA6812F0040F0ED06FF004021A61022367
:10035C00237723689B6913F4407F5FD02046484B7A
:10036C0098470023237723681A6912F0080F12D0DC
:10037C00DA6812F0080F0ED06FF008021A6104232D
:10038C0023772368DB6913F0030F4ED020463C4BD8
:10039C0098470023237723681A6912F0100F12D0A4
:1003AC00DA6812F0100F0ED06FF010021A610823E9
:1003BC0023772368DB6913F4407F3DD02046304B14
:1003CC0098470023237723681A6912F0010F03D092
:1003DC00DA6812F0010F36D123681A6912F0800F17
:1003EC0003D0DA6812F0800F34D123681A6912F046
:1003FC00400F03D0DA6812F0400F32D123681A692B
:10040C0012F0200F03D0DA6812F0200F30D110BD9B
:10041C001C4B984720461C4B98478AE72046194BA3
:10042C0098472046184B98479BE72046154B984712
:10043C002046154B9847ACE72046124B9847204670
:10044C00114B9847BDE76FF001021A6120460F4B24
:10045C009847C1E76FF080021A6120460C4B984711
:10046C00C3E76FF040021A6120460A4B9847C5E774
:10047C006FF020021A612046074B9847C7E700BF70
:10048C000B030008090300080D0300088511000880
:10049C00D30600080F030008D10600080368174AAA
:1004AC00904206D0B0F1804F03D0A2F59432904226
:1004BC0003D123F070034A681343104A904206D0CC
:1004CC00B0F1804F03D0A2F59432904203D123F4C3
:1004DC004073CA68134323F080034A6913430360D3
:1004EC008B68C3620B688362044B984202D0012371
:1004FC00436170470B690363F9E700BF002C0140AF
:10050C0040B310B5044690F83D30F3B1022384F8A3
:10051C003D30214651F8040B0F4B9847012384F8CA
:10052C00463084F83E3084F83F3084F8403084F80C
:10053C00413084F8423084F8433084F8443084F8F5
:10054C00453084F83D30002010BD80F83C30034B22
:10055C009847DBE701207047A90400083D1100080B
:10056C0010B4846824F47F4442EA03220A432243F1
:10057C00826010BC7047000038B590F83C30012BFD
:10058C0065D00446012380F83C30022380F83D30CE
:10059C000268936823F47F4323F0770393600B681E
:1005AC00602B40D022D8402B47D00BD9502B0ED1EA
:1005BC00CA6849680068274B984750212068264B29
:1005CC00984704E0202B0CD008D9302B09D00123FC
:1005DC0084F83D30002084F83C0038BD0BB1102B62
:1005EC00F5D1194620681C4B9847F0E7702B0ED0BC
:1005FC00B3F5005FEBD1CB684A6889680068174D8A
:10060C00A8472268936843F480439360DFE7CB6884
:10061C004A6889680068114DA8472268936843F0BE
:10062C0077039360D3E7CA68496800680C4B984716
:10063C0060212068084B9847C9E7CA684968006878
:10064C00044B984740212068034B9847BFE7022092
:10065C00C3E700BF4D020008970200086D050008B3
:10066C007102000890F83C30012B27D030B40123E4
:10067C0080F83C30022380F83D3003685C689D684C
:10068C0024F070040A6822435A6003680C4A9342AF
:10069C0006D0B3F1804F03D0A2F59432934204D12B
:1006AC0025F080054A6815439D60012380F83D3094
:1006BC00002380F83C30184630BC7047022070474D
:1006CC00002C01407047704710B504460E4B18784B
:1006DC004FF47A73B3FBF0F30C4A1068B0FBF3F0F1
:1006EC000B4B984768B90F2C01D901200AE0002266
:1006FC0021464FF0FF30074B9847074B1C600020FA
:10070C0000E0012010BD00BF000000200800002008
:10071C0089100008051000080400002008B5074ADD
:10072C00136843F0100313600320054B9847002017
:10073C00044B9847044B9847002008BD002002400A
:10074C00E10F0008D506000809020008034A1168E9
:10075C00034B1B780B441360704700BF280000202C
:10076C0000000020014B1868704700BF28000020D3
:10077C0082B0084B1B68084AA2FB03235B0A00FBF0
:10078C0003F3019300BF019B5A1E0192002BF9D178
:10079C0002B0704708000020D34D6210002800F012
:1007AC00F58170B582B00446036813F0010F2CD0AC
:1007BC00984B5B6803F00C03042B1DD0954B5B68C6
:1007CC0003F00C03082B12D06368B3F5803F41D0C3
:1007DC00002B55D103F1804303F504331A6822F43E
:1007EC0080321A601A6822F480221A6037E0894B32
:1007FC005B6813F4803FE7D0864B1B6813F4003F13
:10080C0003D06368002B00F0C381236813F0020F40
:10081C0075D0804B5B6813F00C0F5FD07D4B5B6821
:10082C0003F00C03082B54D02369002B00F08980B3
:10083C00794B01221A60794B98470546754B1B681A
:10084C0013F0020F74D1754B9847401B0228F5D951
:10085C000320A2E16F4A136843F48033136063688A
:10086C0043B36E4B984705466A4B1B6813F4003F25
:10087C00CBD16A4B9847401B6428F5D903208CE1F7
:10088C00B3F5A02F09D0634B1A6822F480321A609A
:10089C001A6822F480221A60E1E703F18043A3F581
:1008AC003C331A6842F480221A601A6842F480328F
:1008BC001A60D4E7594B98470546564B1B6813F4FE
:1008CC00003FA2D0554B9847401B6428F5D9032014
:1008DC0063E1504B5B6813F4803FA5D14D4B1B6813
:1008EC0013F0020F03D02369012B40F05381494AC6
:1008FC00136823F0F803616943EAC10313602368AA
:10090C0013F0080F32D0A369002B45D0444B0122C1
:10091C001A60424B984705463E4B5B6A13F0020F38
:10092C0021D13E4B9847401B0228F5D9032034E1D6
:10093C00384A136823F0F803616943EAC103136072
:10094C00DDE7354B00221A60344B98470546314B96
:10095C001B6813F0020FD2D0304B9847401B022873
:10096C00F5D9032019E101202E4B9847236813F089
:10097C00040F00F09B80274BDB6913F0805F1DD1C7
:10098C00244BDA6942F08052DA61DB6903F0805360
:10099C000193019B012512E0214B00221A601F4B91
:1009AC00984705461B4B5B6A13F0020FDED01B4BBE
:1009BC009847401B0228F5D90320EEE000251A4B7E
:1009CC001B6813F4807F11D0E368012B2ED0002B11
:1009DC0044D103F1804303F504331A6A22F0010277
:1009EC001A621A6A22F004021A6224E00E4A136890
:1009FC0043F480731360094B984706460A4B1B68F7
:100A0C0013F4807FE0D1054B9847801B6428F5D9FF
:100A1C000320C2E0001002400000424271070008AF
:100A2C00800442427D070008007000405F4A136A50
:100A3C0043F001031362E36833B35D4B98470646FA
:100A4C005A4B1B6A13F0020F2FD1594B9847801B3E
:100A5C0041F288339842F3D903209EE0052B09D04C
:100A6C00524B1A6A22F001021A621A6A22F004022C
:100A7C001A62E0E74D4B1A6A42F004021A621A6AD3
:100A8C0042F001021A62D6E7494B98470646474B9B
:100A9C001B6A13F0020F08D0454B9847801B41F29C
:100AAC0088339842F3D9032077E0E5B9E369002B4A
:100ABC0072D03E4A526802F00C02082A56D0022B21
:100ACC0017D03C4B00221A60394B98470446374BE1
:100ADC001B6813F0007F47D0354B9847001B02284A
:100AEC00F5D9032059E0314AD36923F08053D361FF
:100AFC00DCE7304B00221A602D4B984705462B4BF8
:100B0C001B6813F0007F06D0294B9847401B022826
:100B1C00F5D9032041E0236AB3F5803F1AD023496D
:100B2C004B6823F47413226A606A024313434B60CC
:100B3C00204B01221A601E4B984704461B4B1B6826
:100B4C0013F0007F0ED11A4B9847001B0228F5D9E1
:100B5C00032022E0154A536823F40033A1680B43A9
:100B6C005360DCE7002018E0002016E0012B16D0C3
:100B7C000E4B5B6803F48031226A914211D103F46D
:100B8C007013626A93420ED1002006E00120704778
:100B9C00012002E0012000E0002002B070BD012025
:100BAC00FBE70120F9E70120F7E700BF0010024046
:100BBC00710700086000424286B0164B0FCB0DF156
:100BCC00180C0CE90F0040F20123ADF80430124B65
:100BDC005B6803F00C02082A02D0104806B070477C
:100BEC00C3F38342624412F8102C13F4803F0CD0F0
:100BFC00094B5B68C3F34043634413F8143C074848
:100C0C0000FB02F0B0FBF3F0E8E7054800FB02F054
:100C1C00E4E700BFAC1200080010024000127A009A
:100C2C0000093D00002800F0A08070B50D46044678
:100C3C00524B1B6803F007038B420BD24F4A1368CD
:100C4C0023F007030B431360136803F007038B4275
:100C5C0040F08D80236813F0020F17D013F0040FAF
:100C6C0004D0474A536843F4E0635360236813F09D
:100C7C00080F04D0424A536843F460535360404A0F
:100C8C00536823F0F003A1680B435360236813F0FF
:100C9C00010F31D06368012B20D0022B25D0384AAC
:100CAC00126812F0020F64D035494A6822F0030230
:100CBC0013434B60334B98470646314B5B6803F04C
:100CCC000C036268B3EB820F16D02E4B9847801B37
:100CDC0041F288339842F0D9032045E0284A126843
:100CEC0012F4003FE0D101203EE0254A126812F0D8
:100CFC00007FD9D1012037E0204B1B6803F007039C
:100D0C00AB420AD91D4A136823F007032B43136027
:100D1C00136803F00703AB422DD1236813F0040FC3
:100D2C0006D0174A536823F4E063E1680B43536021
:100D3C00236813F0080F07D0114A536823F460534B
:100D4C00216943EAC10353600F4B98470C4B5B6816
:100D5C00C3F303130D4AD35CD8400D4B18600D4BF5
:100D6C0018680D4B9847002070BD0120704701207A
:100D7C00FAE70120F8E70120F6E700BF0020024067
:100D8C000010024071070008C50B0008C0120008D3
:100D9C000800002004000020D5060008F0B482B042
:100DAC0000252C4686E07D4FBB4210D007D97C4FE6
:100DBC00BB420CD007F58037BB4208D015E0A7F535
:100DCC008017BB4203D007F57027BB4209D18B6853
:100DDC00002B00F0B980012B00F0B1804261082596
:100DEC0003E0A7F58017BB42F1D0FF2E00F2AE80D6
:100DFC008446FF2E00F2AD80A200DCF800300F27F5
:100E0C00974023EA070305FA02F21343CCF80030AB
:100E1C004B6813F0805F4CD0624B9A6942F0010230
:100E2C009A619B6903F001030193019BA208971C33
:100E3C005D4B53F8273004F00307BF004FF00F0C45
:100E4C000CFA07FC23EA0C0C584B984200F08780F4
:100E5C0003F58063984200F0848003F58063984228
:100E6C007BD00323BB4043EA0C0302324E4F47F8BE
:100E7C0022304B6813F4803F75D04D4A13683343CE
:100E8C0013604B6813F4003F73D0494A53683343E3
:100E9C0053604B6813F4801F71D0454A93683343F9
:100EAC0093604B6813F4001F6FD0414AD3681E4304
:100EBC00D66001340B6833FA04F26CD00122A240E4
:100ECC0003EA020632EA0303F3D14B68122B3FF616
:100EDC006AAF122B89D801A757F823F0DB0D000855
:100EEC00350F00083F0F0008510F0008F70D0008E0
:100EFC00F70D0008F70D0008F70D0008F70D0008B6
:100F0C00F70D0008F70D0008F70D0008F70D0008A5
:100F1C00F70D0008F70D0008F70D0008F70D000895
:100F2C00390F0008450F0008CD685EE7CD68043521
:100F3C005BE7CD68083558E7CD680C3555E702619D
:100F4C00082552E7002550E704254EE700F1040C74
:100F5C004FE7A4F1080292004FE7022382E7002337
:100F6C0080E701237EE7124A136823EA0603136025
:100F7C0087E70F4A536823EA0603536089E70C4A54
:100F8C00936823EA060393608BE7094AD36823EA44
:100F9C000606D6608DE702B0F0BC70470000221048
:100FAC000000311000100240000001400008014018
:100FBC00000401400AB101617047090401617047E6
:100FCC00C36801EA030221EA030141EA024101611B
:100FDC0070470000074AD36823F4E0631B041B0C22
:100FEC00000200F4E060034343F0BF6343F40033BA
:100FFC00D360704700ED00E030B4174BDB68C3F3EF
:10100C000223C3F10704042C28BF04241D1D062D44
:10101C0018D9033B4FF0FF3505FA04F421EA04011B
:10102C00994005FA03F322EA0303194300280BDB6A
:10103C000901C9B200F1604000F5614080F800136D
:10104C0030BC70470023E5E700F00F000901C9B27E
:10105C00024B1954F4E700BF00ED00E014ED00E082
:10106C00002807DB00F01F02400901239340024ACD
:10107C0042F82030704700BF00E100E00138B0F1C9
:10108C00807F0AD2064B5860064AF02182F8231062
:10109C000020986007221A6070470120704700BF3B
:1010AC0010E000E000ED00E07047000000B587B0F4
:1010BC000023029303930493059300930193164822
:1010CC00164A026041F63F72426083604FF4FA6246
:1010DC00C260036143618361114B984790B94FF42F
:1010EC008053029302A90C480E4B984768B9002311
:1010FC0000930193694608480B4B984740B907B0D9
:10110C005DF804FB094B9847E9E7084B9847EEE775
:10111C00064B9847F3E700BF2C000020002C014041
:10112C000D0500088505000871060008D5010008AA
:10113C0002680E4B9A4200D0704700B583B003F59D
:10114C0064439A6942F400629A619B6903F40063F8
:10115C000193019B002211461920054B9847192039
:10116C00044B984703B05DF804FB00BF002C014012
:10117C00051000086D10000808B501210148024B4C
:10118C00984708BD000C0140CD0F000830B587B062
:10119C00002402940394049405940E4B9A6942F033
:1011AC0008029A619B6903F008030193019B0A4DA5
:1011BC00224601212846094B9847012302930393A9
:1011CC0004940223059302A92846054B984707B0BF
:1011DC0030BD00BF00100240000C0140C10F0008E0
:1011EC00A90D0008002103E00B4B5B584350043160
:1011FC000A480B4B42189A42F6D30A4A02E00023E3
:10120C0042F8043B084B9A42F9D3FFF74DFF00F02C
:10121C000FF8FEF7BFFF7047D8120008000000203F
:10122C000C0000200C00002074000020FEE70000E1
:10123C0070B500260C4D0D4C641BA410A64209D1B0
:10124C0000F022F800260A4D0A4C641BA410A6429A
:10125C0005D170BD55F8043B98470136EEE755F8BB
:10126C00043B98470136F2E7D0120008D012000870
:10127C00D0120008D412000803460244934200D155
:10128C00704703F8011BF9E7F8B500BFF8BC08BCC0
:10129C009E467047F8B500BFF8BC08BC9E46704728
:1012AC0002030405060708090A0B0C0D0E0F10109B
:1012BC000000000000000000000000000102030418
:0412CC000607080900
:0412D00031010008E0
:0412D4000D01000800
:0C12D80001000000100000000024F400E1
:04000005080011F1ED
:00000001FF
