:020000040800F2
:100000000028002041140008B3010008B5010008D1
:10001000B7010008B9010008BB010008000000009A
:10002000000000000000000000000000BD0100080A
:10003000BF01000800000000C1010008C301000862
:10004000891400088914000889140008891400081C
:10005000891400088914000889140008891400080C
:1000600089140008891400088914000889140008FC
:1000700089140008891400088914000889140008EC
:1000800089140008891400088914000889140008DC
:1000900089140008891400088914000889140008CC
:1000A000891400088914000889140008CD0100088B
:1000B0008914000889140008000000008914000851
:1000C00089140008000000000000000089140008E6
:1000D00000000000891400088914000800000000D6
:1000E0008914000889140008891400080000000021
:1000F0000000000000000000000000000000000000
:0C01000000000000000000005FF808F1A3
:10010C0010B5054C237833B9044B13B10448AFF345
:10011C0000800123237010BD0C00002000000000A3
:10012C00E414000808B5034B1BB103490348AFF3B3
:10013C00008008BD0000000010000020E41400083E
:10014C0010B590B02422002107A801F0BDF90024BD
:10015C0001940294039404940594022306930123BE
:10016C000A9310230B9306A800F05EFC0F23019357
:10017C000294039404940594214601A800F092FE85
:10018C0010B010BD08B500F015FCFFF7D9FF01F059
:10019C00B7F801F0C5F80021014800F00FFBFEE7AD
:1001AC002C00002070477047FEE7FEE7FEE7FEE7F5
:1001BC0070477047704708B500F00EFC08BD000092
:1001CC0008B5024800F0A6F808BD00BF2C000020BE
:1001DC0082B00E4B9A6942F001029A619A6902F060
:1001EC0001020092009ADA6942F08052DA61DB690E
:1001FC0003F080530193019B054A536823F0E0639D
:10020C0043F08063536002B0704700BF001002409F
:10021C000000014030B4036A056A25F0010505624F
:10022C00846924F0F00444EA021423F00A030B431B
:10023C008461036230BC704730B4056A25F0100548
:10024C0005628469056A24F4407444EA022424F4A7
:10025C0070441B039BB2234325F0A005090101F058
:10026C00A00129438361016230BC704730B4056A38
:10027C0025F0100505628469036A24F4704444EA8D
:10028C00023423F0A00343EA01138461036230BCFF
:10029C00704730B4056A25F480750562C469056A37
:1002AC0024F00304144324F0F0041B01DBB22343B9
:1002BC0025F40075090201F400712943C361016240
:1002CC0030BC704730B4056A25F480550562C469AA
:1002DC00056A24F4407444EA022424F470441B0399
:1002EC009BB2234325F40055090301F40051294323
:1002FC00C361016230BC7047836823F070030B4309
:10030C0043F007038360704770477047704770472E
:10031C007047704710B5044603681A6912F0020F53
:10032C0011D0DA6812F0020F0DD06FF002021A61D0
:10033C000123037703689B6913F0030F70D0FFF759
:10034C00E6FF0023237723681A6912F0040F12D0FA
:10035C00DA6812F0040F0ED06FF004021A61022357
:10036C00237723689B6913F4407F5FD02046FFF707
:10037C00CEFF0023237723681A6912F0080F12D0DE
:10038C00DA6812F0080F0ED06FF008021A6104231D
:10039C0023772368DB6913F0030F4ED02046FFF759
:1003AC00B6FF0023237723681A6912F0100F12D0BE
:1003BC00DA6812F0100F0ED06FF010021A610823D9
:1003CC0023772368DB6913F4407F3DD02046FFF789
:1003DC009EFF0023237723681A6912F0010F03D0C4
:1003EC00DA6812F0010F36D123681A6912F0800F07
:1003FC0003D0DA6812F0800F34D123681A6912F036
:10040C00400F03D0DA6812F0400F32D123681A691A
:10041C0012F0200F03D0DA6812F0200F30D110BD8B
:10042C00FFF774FF2046FFF773FF8AE72046FFF7BC
:10043C006DFF2046FFF76CFF9BE72046FFF766FF3A
:10044C002046FFF765FFACE72046FFF75FFF20462D
:10045C00FFF75EFFBDE76FF001021A612046FFF760
:10046C0054FFC1E76FF080021A61204600F07BFA5E
:10047C00C3E76FF040021A612046FFF74AFFC5E759
:10048C006FF020021A61204600F06CFAC7E70000FA
:10049C000368174A904206D0B0F1804F03D0A2F502
:1004AC009432904203D123F070034A681343104AEC
:1004BC00904206D0B0F1804F03D0A2F59432904216
:1004CC0003D123F44073CA68134323F080034A69B1
:1004DC00134303608B68C3620B688362044B9842BE
:1004EC0002D00123436170470B690363F9E700BF36
:1004FC00002C014040B310B5044690F83D30F3B1E8
:10050C00022384F83D30214651F8040BFFF7C0FF5D
:10051C00012384F8463084F83E3084F83F3084F868
:10052C00403084F8413084F8423084F8433084F809
:10053C00443084F8453084F83D30002010BD80F8FC
:10054C003C3000F03FFFDBE70120704740B310B5B3
:10055C00044690F83D30F3B1022384F83D30214637
:10056C0051F8040BFFF794FF012384F8463084F80C
:10057C003E3084F83F3084F8403084F8413084F8C1
:10058C00423084F8433084F8443084F8453084F8A1
:10059C003D30002010BD80F83C30FFF7B5FEDBE7A6
:1005AC000120704770B4046A24F001040462846969
:1005BC00056A0F4EB04209D0B0F1804F06D0A6F5B7
:1005CC009436B04202D044F0010202E024F003045D
:1005DC00224322F0F0021B01DBB2134325F00A0286
:1005EC0001F00A0111438361016270BC704700BFC6
:1005FC00002C014038B590F83C30012B52D0044609
:10060C000D46012380F83C30C2B1042A27D0082AB9
:10061C0037D0CB684A6809680068FFF753FE226838
:10062C00D36923F44063D3612268D369A96843EA90
:10063C000123D361002084F83C0038BDCB684A68A4
:10064C0009680068FFF7AEFF2268936923F00C037A
:10065C00936122689369A9680B439361EAE7CB68BD
:10066C004A6809680068FFF7E7FD2268936923F47C
:10067C004063936122689369A96843EA01239361FB
:10068C00D8E7CB684A6809680068FFF702FE226861
:10069C00D36923F00C03D3612268D369A9680B4397
:1006AC00D361C7E70220C8E710B4846824F47F4400
:1006BC0042EA03220A432243826010BC704790F83E
:1006CC003C30012B66D010B50446012380F83C3039
:1006DC00022380F83D300268936823F47F4323F0B3
:1006EC00770393600B68602B40D022D8402B47D007
:1006FC000BD9502B0ED1CA6849680068FFF78AFDE8
:10070C0050212068FFF7F8FD04E0202B0CD008D90D
:10071C00302B09D0012384F83D30002084F83C00B4
:10072C0010BD0BB1102BF5D119462068FFF7E4FD75
:10073C00F0E7702B0ED0B3F5005FEBD1CB684A68B5
:10074C0089680068FFF7B0FF2268936843F4804320
:10075C009360DFE7CB684A6889680068FFF7A4FFFD
:10076C002268936843F077039360D3E7CA684968BB
:10077C000068FFF77BFD60212068FFF7BDFDC9E72E
:10078C00CA6849680068FFF745FD40212068FFF7FB
:10079C00B3FDBFE70220704710B401F01F01012325
:1007AC0003FA01F4036A23EA04030362036A02FAFC
:1007BC0001F10B43036210BC7047000010B50446F6
:1007CC000B4601BB90F83E00C0B263BB94F84220CC
:1007DC00D2B2012840F08F80012A40F08D8093BB6B
:1007EC00022284F83E20002B3DD1022284F84220C4
:1007FC000C2B4DD8DFE803F0474C4C4C624C4C4C66
:10080C00684C4C4C6E00042905D0082907D090F890
:10081C004100C0B2D9E790F83F00C0B2D5E790F8DC
:10082C004000C0B2D1E7042B05D0082B07D094F8B8
:10083C004520D2B2CDE794F84320D2B2C9E794F860
:10084C004420D2B2C5E7042B05D0082B07D00222D6
:10085C0084F84120C7E7022284F83F20C3E7022234
:10086C0084F84020BFE7042B05D0082B07D00222C8
:10087C0084F84520BCE7022284F84320B8E7022222
:10088C0084F84420B4E72168CA6842F00202CA60C6
:10089C00012219462068FFF77FFF2368184A93420C
:1008AC001ED0B3F1804F1BD0A2F59432934217D0D7
:1008BC001A6842F001021A6000201DE02168CA6823
:1008CC0042F00402CA60E3E72168CA6842F00802F9
:1008DC00CA60DDE72168CA6842F01002CA60D7E737
:1008EC009A6802F00702062A07D01A6842F0010241
:1008FC001A60002000E0012010BD0020FCE700BFC2
:10090C00002C014090F83C30012B27D030B401234F
:10091C0080F83C30022380F83D3003685C689D68A9
:10092C0024F070040A6822435A6003680C4A93420C
:10093C0006D0B3F1804F03D0A2F59432934204D188
:10094C0025F080054A6815439D60012380F83D30F1
:10095C00002380F83C30184630BC704702207047AA
:10096C00002C01407047704710B504460E4B1878A8
:10097C004FF47A73B3FBF0F30C4A1068B0FBF3F04E
:10098C0000F0A6FC68B90F2C01D901200AE0002266
:10099C0021464FF0FF3000F059FC054B1C60002045
:1009AC0000E0012010BD00BF000000200800002066
:1009BC000400002008B5074A136843F010031360C5
:1009CC00032000F031FC0020FFF7CEFFFFF700FC06
:1009DC00002008BD00200240034A1168034B1B781D
:1009EC000B441360704700BF28000020000000205B
:1009FC00014B1868704700BF2800002082B0084BDC
:100A0C001B68084AA2FB03235B0A00FB03F3019358
:100A1C0000BF019B5A1E0192002BF9D102B0704706
:100A2C0008000020D34D6210002800F0F18170B551
:100A3C0082B00446036813F0010F2CD0AA4B5B68FC
:100A4C0003F00C03042B1DD0A74B5B6803F00C03C5
:100A5C00082B12D06368B3F5803F41D0002B55D1E1
:100A6C0003F1804303F504331A6822F480321A60D0
:100A7C001A6822F480221A6037E09B4B5B6813F4EF
:100A8C00803FE7D0984B1B6813F4003F03D063689A
:100A9C00002B00F0BF81236813F0020F75D0924B2E
:100AAC005B6813F00C0F5FD08F4B5B6803F00C038B
:100ABC00082B54D02369002B00F089808B4B01222A
:100ACC001A60FFF795FF0546874B1B6813F0020F62
:100ADC0074D1FFF78DFF401B0228F5D903209EE14E
:100AEC00814A136843F480331360636843B3FFF7A0
:100AFC007FFF05467C4B1B6813F4003FCBD1FFF7FF
:100B0C0077FF401B6428F5D9032088E1B3F5A02FAB
:100B1C0009D0754B1A6822F480321A601A6822F4D4
:100B2C0080221A60E1E703F18043A3F53C331A6895
:100B3C0042F480221A601A6842F480321A60D4E7B8
:100B4C00FFF756FF0546684B1B6813F4003FA2D015
:100B5C00FFF74EFF401B6428F5D903205FE1624B81
:100B6C005B6813F4803FA5D15F4B1B6813F0020F39
:100B7C0003D02369012B40F04F815B4A136823F0AB
:100B8C00F803616943EAC1031360236813F0080F8B
:100B9C0032D0A369002B45D0554B01221A60FFF7C8
:100BAC0027FF0546504B5B6A13F0020F21D1FFF76C
:100BBC001FFF401B0228F5D9032030E14A4A136875
:100BCC0023F0F803616943EAC1031360DDE7474B87
:100BDC0000221A60FFF70CFF0546434B1B6813F00D
:100BEC00020FD2D0FFF704FF401B0228F5D90320D7
:100BFC0015E10120FFF702FF236813F0040F00F04A
:100C0C009780394BDB6913F0805F1DD1364BDA6965
:100C1C0042F08052DA61DB6903F080530193019B4F
:100C2C00012512E0324B00221A60FFF7E1FE054667
:100C3C002D4B5B6A13F0020FDED0FFF7D9FE401B81
:100C4C000228F5D90320EAE000252A4B1B6813F48F
:100C5C00807F11D0E368012B22D0002B38D103F117
:100C6C00804303F504331A6A22F001021A621A6AED
:100C7C0022F004021A6218E01E4A136843F48073CF
:100C8C001360FFF7B5FE06461A4B1B6813F4807F02
:100C9C00E0D1FFF7ADFE801B6428F5D90320BEE040
:100CAC00114A136A43F001031362E36873B3FFF74D
:100CBC009FFE06460C4B1B6A13F0020F37D1FFF751
:100CCC0097FE801B41F288339842F3D90320A6E0AB
:100CDC00052B11D0044B1A6A22F001021A621A6A0F
:100CEC0022F004021A62E0E70010024000004242C7
:100CFC0080044242007000404D4B1A6A42F00402DC
:100D0C001A621A6A42F001021A62CEE7FFF770FE0D
:100D1C000646474B1B6A13F0020F08D0FFF768FE1C
:100D2C00801B41F288339842F3D9032077E0E5B970
:100D3C00E369002B72D03E4A526802F00C02082A7A
:100D4C0056D0022B17D03B4B00221A60FFF750FEF7
:100D5C000446374B1B6813F0007F47D0FFF748FE63
:100D6C00001B0228F5D9032059E0314AD36923F03E
:100D7C008053D361DCE72F4B00221A60FFF738FE5B
:100D8C0005462B4B1B6813F0007F06D0FFF730FE97
:100D9C00401B0228F5D9032041E0236AB3F5803FBC
:100DAC001AD023494B6823F47413226A606A0243F5
:100DBC0013434B601F4B01221A60FFF719FE0446C8
:100DCC001B4B1B6813F0007F0ED1FFF711FE001BAD
:100DDC000228F5D9032022E0154A536823F4003386
:100DEC00A1680B435360DCE7002018E0002016E0FC
:100DFC00012B16D00E4B5B6803F48031226A9142B2
:100E0C0011D103F47013626A93420ED1002006E0F4
:100E1C0001207047012002E0012000E0002002B018
:100E2C0070BD0120FBE70120F9E70120F7E700BFC7
:100E3C00001002406000424286B0164B0FCB0DF101
:100E4C00180C0CE90F0040F20123ADF80430124BE2
:100E5C005B6803F00C02082A02D0104806B07047F9
:100E6C00C3F38342624412F8102C13F4803F0CD06D
:100E7C00094B5B68C3F34043634413F8143C0748C5
:100E8C0000FB02F0B0FBF3F0E8E7054800FB02F0D2
:100E9C00E4E700BFFC1400080010024000127A00C6
:100EAC0000093D00002800F0A08070B50D460446F6
:100EBC00524B1B6803F007038B420BD24F4A13684B
:100ECC0023F007030B431360136803F007038B42F3
:100EDC0040F08D80236813F0020F17D013F0040F2D
:100EEC0004D0474A536843F4E0635360236813F01B
:100EFC00080F04D0424A536843F460535360404A8D
:100F0C00536823F0F003A1680B435360236813F07C
:100F1C00010F31D06368012B20D0022B25D0384A29
:100F2C00126812F0020F64D035494A6822F00302AD
:100F3C0013434B60FFF75CFD0646314B5B6803F0D7
:100F4C000C036268B3EB820F16D0FFF751FD801BC8
:100F5C0041F288339842F0D9032045E0284A1268C0
:100F6C0012F4003FE0D101203EE0254A126812F055
:100F7C00007FD9D1012037E0204B1B6803F0070319
:100F8C00AB420AD91D4A136823F007032B431360A5
:100F9C00136803F00703AB422DD1236813F0040F41
:100FAC0006D0174A536823F4E063E1680B4353609F
:100FBC00236813F0080F07D0114A536823F46053C9
:100FCC00216943EAC1035360FFF736FF0C4B5B68A2
:100FDC00C3F303130B4AD35CD8400B4B18600B4B79
:100FEC001868FFF7C1FC002070BD0120704701207C
:100FFC00FAE70120F8E70120F6E700BF00200240E5
:10100C000010024010150008080000200400002009
:10101C00F0B482B000252C4686E07D4FBB4210D048
:10102C0007D97C4FBB420CD007F58037BB4208D0A8
:10103C0015E0A7F58017BB4203D007F57027BB421C
:10104C0009D18B68002B00F0B980012B00F0B18026
:10105C004261082503E0A7F58017BB42F1D0FF2EB3
:10106C0000F2AE808446FF2E00F2AD80A200DCF8C8
:10107C0000300F27974023EA070305FA02F21343C7
:10108C00CCF800304B6813F0805F4CD0624B9A69FF
:10109C0042F001029A619B6903F001030193019BE9
:1010AC00A208971C5D4B53F8273004F00307BF00D0
:1010BC004FF00F0C0CFA07FC23EA0C0C584B98421F
:1010CC0000F0878003F58063984200F0848003F57C
:1010DC00806398427BD00323BB4043EA0C0302326B
:1010EC004E4F47F822304B6813F4803F75D04D4A71
:1010FC001368334313604B6813F4003F73D0494AB1
:10110C005368334353604B6813F4801F71D0454AC6
:10111C009368334393604B6813F4001F6FD0414ABC
:10112C00D3681E43D66001340B6833FA04F26CD0DA
:10113C000122A24003EA020632EA0303F3D14B6810
:10114C00122B3FF66AAF122B89D801A757F823F060
:10115C004F100008A9110008B3110008C5110008B0
:10116C006B1000086B1000086B1000086B10000867
:10117C006B1000086B1000086B1000086B10000857
:10118C006B1000086B1000086B1000086B10000847
:10119C006B100008AD110008B9110008CD685EE7AE
:1011AC00CD6804355BE7CD68083558E7CD680C355C
:1011BC0055E70261082552E7002550E704254EE764
:1011CC0000F1040C4FE7A4F1080292004FE7022350
:1011DC0082E7002380E701237EE7124A136823EAA3
:1011EC000603136087E70F4A536823EA060353602C
:1011FC0089E70C4A936823EA060393608BE7094A54
:10120C00D36823EA0606D6608DE702B0F0BC7047BF
:10121C0000002210000031100010024000000140BC
:10122C000008014000040140074AD36823F4E0633E
:10123C001B041B0C000200F4E060034343F0BF638B
:10124C0043F40033D360704700ED00E030B4174B2B
:10125C00DB68C3F30223C3F10704042C28BF042466
:10126C001D1D062D18D9033B4FF0FF3505FA04F46C
:10127C0021EA0401994005FA03F322EA0303194316
:10128C0000280BDB0901C9B200F1604000F5614098
:10129C0080F8001330BC70470023E5E700F00F0026
:1012AC000901C9B2024B1954F4E700BF00ED00E08C
:1012BC0014ED00E0002807DB00F01F0240090123B9
:1012CC009340024A42F82030704700BF00E100E032
:1012DC000138B0F1807F0AD2064B5860064AF021E3
:1012EC0082F823100020986007221A6070470120B2
:1012FC00704700BF10E000E000ED00E07047000018
:10130C0082B0064B9A6942F004029A619B6903F021
:10131C0004030193019B02B0704700BF0010024010
:10132C0000B58BB00023069307930893099304939D
:10133C00059300930193029303932048204A026083
:10134C0040F2E732426083604FF6FF72C260036185
:10135C0043618361FFF7CEF808BB4FF480530693CB
:10136C0006A91648FFF7ABF9E0B91448FFF7EEF8F9
:10137C00D8B900230493059304A91048FFF7C2FAC7
:10138C00B0B90022009201230193029203926946A4
:10139C000A48FFF72FF970B90BB05DF804FBFEF7A4
:1013AC0001FFDAE7FEF7FEFEDFE7FEF7FBFEE0E704
:1013BC00FEF7F8FEE5E7FEF7F5FEEDE72C00002062
:1013CC00002C014010B586B00023029303930493C4
:1013DC0005930268154B9A4201D006B010BD03F577
:1013EC0064439A6942F400629A619A6902F4006259
:1013FC000092009A9A6942F004029A619B6903F088
:10140C0004030193019B4FF4807302930024039413
:10141C00049402A90648FFF7FBFD224621461B2037
:10142C00FFF714FF1B20FFF745FFD6E7002C014008
:10143C0000080140002103E00B4B5B584350043182
:10144C000A480B4B42189A42F6D30A4A02E0002390
:10145C0042F8043B084B9A42F9D3FFF74FFF00F0D8
:10146C000FF8FEF78FFE70472815000800000020CB
:10147C000C0000200C00002074000020FEE700008F
:10148C0070B500260C4D0D4C641BA410A64209D15E
:10149C0000F022F800260A4D0A4C641BA410A64248
:1014AC0005D170BD55F8043B98470136EEE755F869
:1014BC00043B98470136F2E7201500082015000878
:1014CC00201500082415000803460244934200D15D
:1014DC00704703F8011BF9E7F8B500BFF8BC08BC6E
:1014EC009E467047F8B500BFF8BC08BC9E467047D6
:1014FC0002030405060708090A0B0C0D0E0F101049
:10150C0000000000000000000000000001020304C5
:04151C0006070809AD
:04152000310100088D
:041524000D010008AD
:0C15280001000000100000000024F4008E
:04000005080014419A
:00000001FF
