:020000040800F2
:1000000000280020350F0008190200081B02000814
:100010001D0200081F020008210200080000000065
:1000200000000000000000000000000023020008A3
:10003000250200080000000027020008290200082D
:100040007D0F00087D0F00087D0F00087D0F000860
:100050007D0F00087D0F00087D0F00087D0F000850
:100060007D0F00087D0F00087D0F00087D0F000840
:100070007D0F00087D0F00087D0F00087D0F000830
:100080007D0F00087D0F00087D0F00087D0F000820
:100090007D0F00087D0F00087D0F00087D0F000810
:1000A0007D0F00082D0200087D0F00087D0F00085D
:1000B0007D0F00087D0F0008000000007D0F000884
:1000C0007D0F000800000000000000007D0F000808
:1000D000000000007D0F00087D0F000800000000F8
:1000E0007D0F00087D0F00087D0F00080000000054
:1000F0000000000000000000000000000000000000
:0C01000000000000000000005FF808F1A3
:10010C0010B5054C237833B9044B13B10448AFF345
:10011C0000800123237010BD0C00002000000000A3
:10012C00D80F000808B5034B1BB103490348AFF3C4
:10013C00008008BD0000000010000020D80F00084F
:10014C0010B590B02422002107A800F037FF00243E
:10015C0001940294039404940594022306930123BE
:10016C000A9310230B9306A800F04EFA0F23019369
:10017C000294039404940594214601A800F082FC97
:10018C0010B010BD08B500F005FAFFF7D9FF00F06C
:10019C0015F801220221024800F06AFEFEE700BFBA
:1001AC000010014008B50268034B9A4200D008BD0C
:1001BC0000F002FAFBE700BF002C014030B587B01D
:1001CC00002402940394049405940E4B9A6942F013
:1001DC0010029A619B6903F010030193019B0A4D75
:1001EC0022460221284600F043FE022302930122FC
:1001FC0003920494059302A9284600F02DFD07B044
:10020C0030BD00BF00100240001001407047FEE7F7
:10021C00FEE7FEE7FEE77047704770477047000047
:10022C0008B5024800F098F808BD00BF280000206F
:10023C0082B00E4B9A6942F001029A619A6902F0FF
:10024C0001020092009ADA6942F08052DA61DB69AD
:10025C0003F080530193019B054A536823F0E0633C
:10026C0043F08063536002B0704700BF001002403F
:10027C000000014000B589B001460022192000F0B1
:10028C000FFE192000F040FE144B9A6942F40062F4
:10029C009A619B6903F400630193019B02A903A873
:1002AC0000F0BCFC00F0AAFC0D4BA3FB00239B0C44
:1002BC00013B0C480C4A026040F2E732C2604360DA
:1002CC0000230361836000F037F918B1012009B0F5
:1002DC005DF804FB034800F00BF8F8E7001002404F
:1002EC0083DE1B4328000020002C014070470000D7
:1002FC0090F83D30DBB2012B23D1022380F83D3046
:10030C000268D36843F00103D36003680F4A934239
:10031C000CD0B3F1804F09D0A2F59432934205D0A2
:10032C001A6842F001021A60002070479A6802F0C5
:10033C000702062A07D01A6842F001021A60002050
:10034C007047012070470020704700BF002C01400F
:10035C00704770477047704710B5044603681A69B8
:10036C0012F0020F11D0DA6812F0020F0DD06FF0FC
:10037C0002021A610123037703689B6913F0030FD0
:10038C0070D0FFF7E6FF0023237723681A6912F079
:10039C00040F12D0DA6812F0040F0ED06FF00402C2
:1003AC001A610223237723689B6913F4407F5FD083
:1003BC002046FFF7CEFF0023237723681A6912F03B
:1003CC00080F12D0DA6812F0080F0ED06FF0080286
:1003DC001A61042323772368DB6913F0030F4ED0D3
:1003EC002046FFF7B6FF0023237723681A6912F023
:1003FC00100F12D0DA6812F0100F0ED06FF010023E
:10040C001A61082323772368DB6913F4407F3DD0FE
:10041C002046FFF79EFF0023237723681A6912F00A
:10042C00010F03D0DA6812F0010F36D123681A6974
:10043C0012F0800F03D0DA6812F0800F34D12368E9
:10044C001A6912F0400F03D0DA6812F0400F32D163
:10045C0023681A6912F0200F03D0DA6812F0200F0B
:10046C0030D110BDFFF774FF2046FFF773FF8AE70A
:10047C002046FFF76DFF2046FFF76CFF9BE72046F9
:10048C00FFF766FF2046FFF765FFACE72046FFF756
:10049C005FFF2046FFF75EFFBDE76FF001021A61B8
:1004AC002046FFF77FFEC1E76FF080021A612046FD
:1004BC0000F06FF8C3E76FF040021A612046FFF7B7
:1004CC004AFFC5E76FF020021A61204600F060F881
:1004DC00C7E700000368174A904206D0B0F1804F7E
:1004EC0003D0A2F59432904203D123F070034A68F2
:1004FC001343104A904206D0B0F1804F03D0A2F5BE
:10050C009432904203D123F44073CA68134323F00E
:10051C0080034A69134303608B68C3620B68836270
:10052C00044B984202D00123436170470B6903636B
:10053C00F9E700BF002C014040B310B5044690F819
:10054C003D30F3B1022384F83D30214651F8040BC1
:10055C00FFF7C0FF012384F8463084F83E3084F85E
:10056C003F3084F8403084F8413084F8423084F8CD
:10057C00433084F8443084F8453084F83D30002012
:10058C0010BD80F83C30FFF7B1FEDBE7012070476F
:10059C007047704708B5074A136843F0100313609F
:1005AC00032000F06BFC0020FFF764FEFFF740FE19
:1005BC00002008BD00200240034A1168034B1B7841
:1005CC000B441360704700BF700000200000002037
:1005DC00014B1868704700BF7000002082B0084BB8
:1005EC001B68084AA2FB03235B0A00FB03F301937D
:1005FC0000BF019B5A1E0192002BF9D102B070472B
:10060C0008000020D34D6210002800F0F18170B575
:10061C0082B00446036813F0010F2CD0AA4B5B6820
:10062C0003F00C03042B1DD0A74B5B6803F00C03E9
:10063C00082B12D06368B3F5803F41D0002B55D105
:10064C0003F1804303F504331A6822F480321A60F4
:10065C001A6822F480221A6037E09B4B5B6813F413
:10066C00803FE7D0984B1B6813F4003F03D06368BE
:10067C00002B00F0BF81236813F0020F75D0924B52
:10068C005B6813F00C0F5FD08F4B5B6803F00C03AF
:10069C00082B54D02369002B00F089808B4B01224E
:1006AC001A60FFF795FF0546874B1B6813F0020F86
:1006BC0074D1FFF78DFF401B0228F5D903209EE172
:1006CC00814A136843F480331360636843B3FFF7C4
:1006DC007FFF05467C4B1B6813F4003FCBD1FFF723
:1006EC0077FF401B6428F5D9032088E1B3F5A02FD0
:1006FC0009D0754B1A6822F480321A601A6822F4F9
:10070C0080221A60E1E703F18043A3F53C331A68B9
:10071C0042F480221A601A6842F480321A60D4E7DC
:10072C00FFF756FF0546684B1B6813F4003FA2D039
:10073C00FFF74EFF401B6428F5D903205FE1624BA5
:10074C005B6813F4803FA5D15F4B1B6813F0020F5D
:10075C0003D02369012B40F04F815B4A136823F0CF
:10076C00F803616943EAC1031360236813F0080FAF
:10077C0032D0A369002B45D0554B01221A60FFF7EC
:10078C0027FF0546504B5B6A13F0020F21D1FFF790
:10079C001FFF401B0228F5D9032030E14A4A136899
:1007AC0023F0F803616943EAC1031360DDE7474BAB
:1007BC0000221A60FFF70CFF0546434B1B6813F031
:1007CC00020FD2D0FFF704FF401B0228F5D90320FB
:1007DC0015E10120FFF702FF236813F0040F00F06E
:1007EC009780394BDB6913F0805F1DD1364BDA698A
:1007FC0042F08052DA61DB6903F080530193019B74
:10080C00012512E0324B00221A60FFF7E1FE05468B
:10081C002D4B5B6A13F0020FDED0FFF7D9FE401BA5
:10082C000228F5D90320EAE000252A4B1B6813F4B3
:10083C00807F11D0E368012B22D0002B38D103F13B
:10084C00804303F504331A6A22F001021A621A6A11
:10085C0022F004021A6218E01E4A136843F48073F3
:10086C001360FFF7B5FE06461A4B1B6813F4807F26
:10087C00E0D1FFF7ADFE801B6428F5D90320BEE064
:10088C00114A136A43F001031362E36873B3FFF771
:10089C009FFE06460C4B1B6A13F0020F37D1FFF775
:1008AC0097FE801B41F288339842F3D90320A6E0CF
:1008BC00052B11D0044B1A6A22F001021A621A6A33
:1008CC0022F004021A62E0E70010024000004242EB
:1008DC0080044242007000404D4B1A6A42F0040200
:1008EC001A621A6A42F001021A62CEE7FFF770FE32
:1008FC000646474B1B6A13F0020F08D0FFF768FE41
:10090C00801B41F288339842F3D9032077E0E5B994
:10091C00E369002B72D03E4A526802F00C02082A9E
:10092C0056D0022B17D03B4B00221A60FFF750FE1B
:10093C000446374B1B6813F0007F47D0FFF748FE87
:10094C00001B0228F5D9032059E0314AD36923F062
:10095C008053D361DCE72F4B00221A60FFF738FE7F
:10096C0005462B4B1B6813F0007F06D0FFF730FEBB
:10097C00401B0228F5D9032041E0236AB3F5803FE0
:10098C001AD023494B6823F47413226A606A024319
:10099C0013434B601F4B01221A60FFF719FE0446EC
:1009AC001B4B1B6813F0007F0ED1FFF711FE001BD1
:1009BC000228F5D9032022E0154A536823F40033AA
:1009CC00A1680B435360DCE7002018E0002016E020
:1009DC00012B16D00E4B5B6803F48031226A9142D6
:1009EC0011D103F47013626A93420ED1002006E019
:1009FC0001207047012002E0012000E0002002B03D
:100A0C0070BD0120FBE70120F9E70120F7E700BFEB
:100A1C00001002406000424286B0164B0FCB0DF125
:100A2C00180C0CE90F0040F20123ADF80430124B06
:100A3C005B6803F00C02082A02D0104806B070471D
:100A4C00C3F38342624412F8102C13F4803F0CD091
:100A5C00094B5B68C3F34043634413F8143C0748E9
:100A6C0000FB02F0B0FBF3F0E8E7054800FB02F0F6
:100A7C00E4E700BFF00F00080010024000127A00FB
:100A8C0000093D00002800F0A08070B50D4604461A
:100A9C00524B1B6803F007038B420BD24F4A13686F
:100AAC0023F007030B431360136803F007038B4217
:100ABC0040F08D80236813F0020F17D013F0040F51
:100ACC0004D0474A536843F4E0635360236813F03F
:100ADC00080F04D0424A536843F460535360404AB1
:100AEC00536823F0F003A1680B435360236813F0A1
:100AFC00010F31D06368012B20D0022B25D0384A4E
:100B0C00126812F0020F64D035494A6822F00302D1
:100B1C0013434B60FFF75CFD0646314B5B6803F0FB
:100B2C000C036268B3EB820F16D0FFF751FD801BEC
:100B3C0041F288339842F0D9032045E0284A1268E4
:100B4C0012F4003FE0D101203EE0254A126812F079
:100B5C00007FD9D1012037E0204B1B6803F007033D
:100B6C00AB420AD91D4A136823F007032B431360C9
:100B7C00136803F00703AB422DD1236813F0040F65
:100B8C0006D0174A536823F4E063E1680B435360C3
:100B9C00236813F0080F07D0114A536823F46053ED
:100BAC00216943EAC1035360FFF736FF0C4B5B68C6
:100BBC00C3F303130B4AD35CD8400B4B18600B4B9D
:100BCC001868FFF757FB002070BD0120704701200B
:100BDC00FAE70120F8E70120F6E700BF0020024009
:100BEC00001002400410000808000020040000203F
:100BFC00014B1868704700BF0800002008B5FFF7CC
:100C0C00F7FF044B5B68C3F3C223034AD35CD840A1
:100C1C0008BD00BF00100240141000080F23036031
:100C2C000B4B5A6802F0030242605A6802F0F00261
:100C3C0082605A6802F4E062C2605B68DB0803F40D
:100C4C00E0630361034B1B6803F007030B60704701
:100C5C000010024000200240F0B482B000252C4667
:100C6C0086E07D4FBB4210D007D97C4FBB420CD0E5
:100C7C0007F58037BB4208D015E0A7F58017BB42BB
:100C8C0003D007F57027BB4209D18B68002B00F00D
:100C9C00B980012B00F0B1804261082503E0A7F573
:100CAC008017BB42F1D0FF2E00F2AE808446FF2E9F
:100CBC0000F2AD80A200DCF800300F27974023EA49
:100CCC00070305FA02F21343CCF800304B6813F01B
:100CDC00805F4CD0624B9A6942F001029A619B6929
:100CEC0003F001030193019BA208971C5D4B53F881
:100CFC00273004F00307BF004FF00F0C0CFA07FC71
:100D0C0023EA0C0C584B984200F0878003F5806363
:100D1C00984200F0848003F5806398427BD00323D3
:100D2C00BB4043EA0C0302324E4F47F822304B686B
:100D3C0013F4803F75D04D4A1368334313604B68EE
:100D4C0013F4003F73D0494A5368334353604B68E4
:100D5C0013F4801F71D0454A9368334393604B68FA
:100D6C0013F4001F6FD0414AD3681E43D660013480
:100D7C000B6833FA04F26CD00122A24003EA02069B
:100D8C0032EA0303F3D14B68122B3FF66AAF122BF6
:100D9C0089D801A757F823F0970C0008F10D00082B
:100DAC00FB0D00080D0E0008B30C0008B30C000876
:100DBC00B30C0008B30C0008B30C0008B30C00080B
:100DCC00B30C0008B30C0008B30C0008B30C0008FB
:100DDC00B30C0008B30C0008B30C0008F50D0008A8
:100DEC00010E0008CD685EE7CD6804355BE7CD6881
:100DFC00083558E7CD680C3555E70261082552E7F0
:100E0C00002550E704254EE700F1040C4FE7A4F150
:100E1C00080292004FE7022382E7002380E70123B8
:100E2C007EE7124A136823EA0603136087E70F4A2A
:100E3C00536823EA0603536089E70C4A936823EA54
:100E4C00060393608BE7094AD36823EA0606D6604B
:100E5C008DE702B0F0BC704700002210000031108A
:100E6C000010024000000140000801400004014055
:100E7C000AB101617047090401617047074AD368E0
:100E8C0023F4E0631B041B0C000200F4E06003433A
:100E9C0043F0BF6343F40033D360704700ED00E0D0
:100EAC0030B4174BDB68C3F30223C3F10704042CE3
:100EBC0028BF04241D1D062D18D9033B4FF0FF3508
:100ECC0005FA04F421EA0401994005FA03F322EA35
:100EDC000303194300280BDB0901C9B200F1604080
:100EEC0000F5614080F8001330BC70470023E5E743
:100EFC0000F00F000901C9B2024B1954F4E700BF0E
:100F0C0000ED00E014ED00E0002807DB00F01F020C
:100F1C00400901239340024A42F82030704700BF39
:100F2C0000E100E070470000002103E00B4B5B5830
:100F3C00435004310A480B4B42189A42F6D30A4AE2
:100F4C0002E0002342F8043B084B9A42F9D3FFF726
:100F5C00E9FF00F00FF8FFF715F9704724100008AF
:100F6C00000000200C0000200C0000207400002069
:100F7C00FEE7000070B500260C4D0D4C641BA41050
:100F8C00A64209D100F022F800260A4D0A4C641B37
:100F9C00A410A64205D170BD55F8043B9847013604
:100FAC00EEE755F8043B98470136F2E71C100008B1
:100FBC001C1000081C1000082010000803460244F6
:100FCC00934200D1704703F8011BF9E7F8B500BF55
:100FDC00F8BC08BC9E467047F8B500BFF8BC08BC0E
:040FEC009E46704766
:100FF00002030405060708090A0B0C0D0E0F10105A
:1010000000000000000000000000000001020304D6
:0C101000060708090000000001020304AC
:04101C003101000896
:041020000D010008B6
:0C10240001000000100000000024F40097
:0400000508000F35AB
:00000001FF
