:020000040800F2
:1000000000280020412F0008F9020008FB02000828
:10001000FD020008FF0200080103000800000000C4
:10002000000000000000000000000000D12C0008CB
:100030000303000800000000712D0008B52D000822
:10004000892F0008892F0008892F0008892F0008B0
:10005000892F0008892F00080503000815030008F0
:100060002503000835030008892F0008892F0008A0
:10007000892F0008892F0008892F0008892F000880
:10008000892F0008892F0008892F0008892F000870
:10009000892F0008892F0008892F0008892F000860
:1000A000892F000845030008892F0008892F0008C0
:1000B000892F0008892F000800000000892F000800
:1000C000892F00080000000000000000892F0008B0
:1000D00000000000892F0008892F000800000000A0
:1000E000892F0008892F0008892F000800000000D0
:1000F0000000000000000000000000000000000000
:0C01000000000000000000005FF808F1A3
:1001100010B5054C237833B9044B13B10448AFF341
:1001200000800123237010BD10000020000000009B
:100130000030000808B5034B1BB103490348AFF377
:10014000008008BD000000001400002000300008FE
:1001500008B50268034B9A4200D008BD024B98478D
:10016000FBE700BF002C01407104000872B6FEE7F7
:1001700000B591B02422002107A8124B9847002314
:1001800001930293039304930593022206920122A2
:100190000A9210220B920D9306A80B4B984768B950
:1001A0000F2301930021029103910491059101A86D
:1001B000064B984720B911B05DF804FB044B9847F3
:1001C000034B9847F12F0008C104000849090008B3
:1001D0006D01000808B5064B9847064B9847064B3B
:1001E0009847064B9847064B9847064B9847FEE7BB
:1001F00041040008710100080902000815280008E0
:10020000D50200085928000870B586B00024029471
:10021000039404940594234B9A6942F010029A6166
:100220009A6902F010020092009A9A6942F008025C
:100230009A619B6903F008030193019B1A4D2246C2
:100240000F212846194B98470F2602960123039346
:1002500002230493059302A92846154DA847029648
:10026000144B0393049402A91348A847224605217E
:100270000620124EB0470620114DA8472246052100
:100280000720B0470720A847224605210820B0478D
:100290000820A847224605210920B0470920A84781
:1002A00006B070BD0010024000100140450D00086E
:1002B0002D0B000800001110000C0140990D0008E2
:1002C000010E000808B50120014B9847FBE700BF6D
:1002D0009D29000808B5044A00210448044B9847AA
:1002E000044B186008BD00BF24300008C502000898
:1002F000A928000830190020FEE7FEE7FEE7FEE728
:10030000FEE7704708B50120014B984708BD00BFC4
:10031000550D000808B50220014B984708BD00BFE5
:10032000550D000808B50420014B984708BD00BFD3
:10033000550D000808B50820014B984708BD00BFBF
:10034000550D000808B50248024B984708BD00BF8C
:1003500034190020890E000800B583B0114B9A694A
:1003600042F001029A619A6902F001020092009A39
:10037000DA6942F08052DA61DB6903F0805301935D
:10038000019B00220F216FF00100074B9847074A9D
:10039000536823F0E06343F08063536003B05DF87B
:1003A00004FB00BF00100240990D0008000001404E
:1003B00000B589B0014600221920174B9847192033
:1003C000164B9847164B9A6942F400629A619B69F2
:1003D00003F400630193019B02A903A8114B984702
:1003E000114B9847114BA3FB00239B0C013B10487A
:1003F000104A026040F2E732C260436000230361AA
:1004000083600D4B984718B1012009B05DF804FBDB
:1004100007480A4B9847F8E7990D0008010E0008B5
:1004200000100240F10A0008CD0A000883DE1B43D9
:1004300034190020002C014085100008210E00080E
:1004400008B5074A136843F0100313600320054BF7
:1004500098470020044B9847044B9847002008BD5C
:1004600000200240750D0008B10300085903000880
:10047000034A1168034B1B780B441360704700BF9D
:100480007C19002000000020014B1868704700BF55
:100490007C19002082B0084B1B68084AA2FB03238A
:1004A0005B0A00FB03F3019300BF019B5A1E0192FC
:1004B000002BF9D102B0704708000020D34D621024
:1004C000002800F0F58170B582B00446036813F08F
:1004D000010F2CD0984B5B6803F00C03042B1DD04C
:1004E000954B5B6803F00C03082B12D06368B3F5DF
:1004F000803F41D0002B55D103F1804303F50433F5
:100500001A6822F480321A601A6822F480221A6073
:1005100037E0894B5B6813F4803FE7D0864B1B685C
:1005200013F4003F03D06368002B00F0C3812368FD
:1005300013F0020F75D0804B5B6813F00C0F5FD087
:100540007D4B5B6803F00C03082B54D02369002B10
:1005500000F08980794B01221A60794B9847054653
:10056000754B1B6813F0020F74D1754B9847401BF5
:100570000228F5D90320A2E16F4A136843F48033BF
:100580001360636843B36E4B984705466A4B1B681C
:1005900013F4003FCBD16A4B9847401B6428F5D930
:1005A00003208CE1B3F5A02F09D0634B1A6822F425
:1005B00080321A601A6822F480221A60E1E703F19F
:1005C0008043A3F53C331A6842F480221A601A680B
:1005D00042F480321A60D4E7594B98470546564B8F
:1005E0001B6813F4003FA2D0554B9847401B64286A
:1005F000F5D9032063E1504B5B6813F4803FA5D12C
:100600004D4B1B6813F0020F03D02369012B40F000
:100610005381494A136823F0F803616943EAC1032F
:100620001360236813F0080F32D0A369002B45D064
:10063000444B01221A60424B984705463E4B5B6A89
:1006400013F0020F21D13E4B9847401B0228F5D9E9
:10065000032034E1384A136823F0F803616943EA60
:10066000C1031360DDE7354B00221A60344B984715
:100670000546314B1B6813F0020FD2D0304B984720
:10068000401B0228F5D9032019E101202E4B984781
:10069000236813F0040F00F09B80274BDB6913F0F5
:1006A000805F1DD1244BDA6942F08052DA61DB6948
:1006B00003F080530193019B012512E0214B00229E
:1006C0001A601F4B984705461B4B5B6A13F0020FDD
:1006D000DED01B4B9847401B0228F5D90320EEE0E3
:1006E00000251A4B1B6813F4807F11D0E368012B9F
:1006F0002ED0002B44D103F1804303F504331A6A52
:1007000022F001021A621A6A22F004021A6224E03C
:100710000E4A136843F480731360094B98470646EA
:100720000A4B1B6813F4807FE0D1054B9847801B70
:100730006428F5D90320C2E00010024000004242C4
:1007400089040008800442429504000800700040BB
:100750005F4A136A43F001031362E36833B35D4BEE
:10076000984706465A4B1B6A13F0020F2FD1594B7C
:100770009847801B41F288339842F3D903209EE0CA
:10078000052B09D0524B1A6A22F001021A621A6A2A
:1007900022F004021A62E0E74D4B1A6A42F00402AA
:1007A0001A621A6A42F001021A62D6E7494B984768
:1007B0000646474B1B6A13F0020F08D0454B98477B
:1007C000801B41F288339842F3D9032077E0E5B9E2
:1007D000E369002B72D03E4A526802F00C02082AEC
:1007E00056D0022B17D03C4B00221A60394B984749
:1007F0000446374B1B6813F0007F47D0354B9847B2
:10080000001B0228F5D9032059E0314AD36923F0AF
:100810008053D361DCE7304B00221A602D4B9847A0
:1008200005462B4B1B6813F0007F06D0294B9847D9
:10083000401B0228F5D9032041E0236AB3F5803F2D
:100840001AD023494B6823F47413226A606A024366
:1008500013434B60204B01221A601E4B98470446FD
:100860001B4B1B6813F0007F0ED11A4B9847001BDF
:100870000228F5D9032022E0154A536823F40033F7
:10088000A1680B435360DCE7002018E0002016E06D
:10089000012B16D00E4B5B6803F48031226A914223
:1008A00011D103F47013626A93420ED1002006E066
:1008B00001207047012002E0012000E0002002B08A
:1008C00070BD0120FBE70120F9E70120F7E700BF39
:1008D00000100240890400086000424286B0164BB6
:1008E0000FCB0DF1180C0CE90F0040F20123ADF80D
:1008F0000430124B5B6803F00C02082A02D0104847
:1009000006B07047C3F38342624412F8102C13F40C
:10091000803F0CD0094B5B68C3F34043634413F83A
:10092000143C074800FB02F0B0FBF3F0E8E7054891
:1009300000FB02F0E4E700BF48300008001002406E
:1009400000127A0000093D00002800F0A08070B578
:100950000D460446524B1B6803F007038B420BD233
:100960004F4A136823F007030B431360136803F027
:1009700007038B4240F08D80236813F0020F17D0DD
:1009800013F0040F04D0474A536843F4E063536004
:10099000236813F0080F04D0424A536843F46053AD
:1009A0005360404A536823F0F003A1680B4353603F
:1009B000236813F0010F31D06368012B20D0022B84
:1009C00025D0384A126812F0020F64D035494A68BF
:1009D00022F0030213434B60334B98470646314BDA
:1009E0005B6803F00C036268B3EB820F16D02E4BEA
:1009F0009847801B41F288339842F0D9032045E0A4
:100A0000284A126812F4003FE0D101203EE0254A56
:100A1000126812F0007FD9D1012037E0204B1B680B
:100A200003F00703AB420AD91D4A136823F00703FA
:100A30002B431360136803F00703AB422DD12368E7
:100A400013F0040F06D0174A536823F4E063E168FB
:100A50000B435360236813F0080F07D0114A536803
:100A600023F46053216943EAC10353600F4B984755
:100A70000C4B5B68C3F303130D4AD35CD8400D4B9A
:100A800018600D4B18680D4B9847002070BD012071
:100A900070470120FAE70120F8E70120F6E700BFE0
:100AA000002002400010024089040008DD08000810
:100AB0005C3000080800002004000020B10300089A
:100AC000014B1868704700BF0800002008B5054BAF
:100AD0009847054B5B68C3F3C223044AD35CD840F4
:100AE00008BD00BFC10A0008001002406C300008B9
:100AF0000F2303600B4B5A6802F0030242605A68EE
:100B000002F0F00282605A6802F4E062C2605B6840
:100B1000DB0803F4E0630361034B1B6803F0070386
:100B20000B6070470010024000200240F0B482B019
:100B300000252C4686E07D4FBB4210D007D97C4F64
:100B4000BB420CD007F58037BB4208D015E0A7F5B3
:100B50008017BB4203D007F57027BB4209D18B68D1
:100B6000002B00F0B980012B00F0B1804261082514
:100B700003E0A7F58017BB42F1D0FF2E00F2AE8054
:100B80008446FF2E00F2AD80A200DCF800300F2773
:100B9000974023EA070305FA02F21343CCF800302A
:100BA0004B6813F0805F4CD0624B9A6942F00102AF
:100BB0009A619B6903F001030193019BA208971CB2
:100BC0005D4B53F8273004F00307BF004FF00F0CC4
:100BD0000CFA07FC23EA0C0C584B984200F0878073
:100BE00003F58063984200F0848003F580639842A7
:100BF0007BD00323BB4043EA0C0302324E4F47F83D
:100C000022304B6813F4803F75D04D4A136833434C
:100C100013604B6813F4003F73D0494A5368334361
:100C200053604B6813F4801F71D0454A9368334377
:100C300093604B6813F4001F6FD0414AD3681E4382
:100C4000D66001340B6833FA04F26CD00122A24062
:100C500003EA020632EA0303F3D14B68122B3FF694
:100C60006AAF122B89D801A757F823F05F0B000851
:100C7000B90C0008C30C0008D50C00087B0B000859
:100C80007B0B00087B0B00087B0B00087B0B00082C
:100C90007B0B00087B0B00087B0B00087B0B00081C
:100CA0007B0B00087B0B00087B0B00087B0B00080C
:100CB000BD0C0008C90C0008CD685EE7CD6804359E
:100CC0005BE7CD68083558E7CD680C3555E702611C
:100CD000082552E7002550E704254EE700F1040CF3
:100CE0004FE7A4F1080292004FE7022382E70023B6
:100CF00080E701237EE7124A136823EA06031360A4
:100D000087E70F4A536823EA0603536089E70C4AD2
:100D1000936823EA060393608BE7094AD36823EAC2
:100D20000606D6608DE702B0F0BC704700002210C6
:100D30000000311000100240000001400008014096
:100D4000000401400AB10161704709040161704764
:100D50007047000008B5054B5B69034200D108BD30
:100D6000024B5861024B9847F9E700BF000401406D
:100D7000510D0008074AD36823F4E0631B041B0CE1
:100D8000000200F4E060034343F0BF6343F4003328
:100D9000D360704700ED00E030B4174BDB68C3F35D
:100DA0000223C3F10704042C28BF04241D1D062DB3
:100DB00018D9033B4FF0FF3505FA04F421EA04018A
:100DC000994005FA03F322EA0303194300280BDBD9
:100DD0000901C9B200F1604000F5614080F80013DC
:100DE00030BC70470023E5E700F00F000901C9B2ED
:100DF000024B1954F4E700BF00ED00E014ED00E0F1
:100E0000002807DB00F01F02400901239340024A3B
:100E100042F82030704700BF00E100E0704700005A
:100E200090F83D30DBB2012B23D1022380F83D3016
:100E30000268D36843F00103D36003680F4A93420A
:100E40000CD0B3F1804F09D0A2F59432934205D073
:100E50001A6842F001021A60002070479A6802F096
:100E60000702062A07D01A6842F001021A60002021
:100E70007047012070470020704700BF002C0140E0
:100E8000704770477047704710B5044603681A6989
:100E900012F0020F11D0DA6812F0020F0DD06FF0CD
:100EA00002021A610123037703689B6913F0030FA1
:100EB00070D0544B98470023237723681A6912F0A7
:100EC000040F12D0DA6812F0040F0ED06FF0040293
:100ED0001A610223237723689B6913F4407F5FD054
:100EE0002046484B98470023237723681A6912F05D
:100EF000080F12D0DA6812F0080F0ED06FF0080257
:100F00001A61042323772368DB6913F0030F4ED0A3
:100F100020463C4B98470023237723681A6912F038
:100F2000100F12D0DA6812F0100F0ED06FF010020E
:100F30001A61082323772368DB6913F4407F3DD0CF
:100F40002046304B98470023237723681A6912F014
:100F5000010F03D0DA6812F0010F36D123681A6945
:100F600012F0800F03D0DA6812F0800F34D12368BA
:100F70001A6912F0400F03D0DA6812F0400F32D134
:100F800023681A6912F0200F03D0DA6812F0200FDC
:100F900030D110BD1C4B984720461C4B98478AE720
:100FA0002046194B98472046184B98479BE7204608
:100FB000154B98472046154B9847ACE72046124BF7
:100FC00098472046114B9847BDE76FF001021A6120
:100FD00020460F4B9847C1E76FF080021A61204608
:100FE0000C4B9847C3E76FF040021A6120460A4B4A
:100FF0009847C5E76FF020021A612046074B9847D3
:10100000C7E700BF830E0008810E0008850E0008A8
:1010100051010008E7100008870E0008E5100008DD
:101020000368174A904206D0B0F1804F03D0A2F572
:101030009432904203D123F070034A681343104A5C
:10104000904206D0B0F1804F03D0A2F59432904286
:1010500003D123F44073CA68134323F080034A6921
:10106000134303608B68C3620B688362044B98422E
:1010700002D00123436170470B690363F9E700BFA6
:10108000002C014040B310B5044690F83D30F3B158
:10109000022384F83D30214651F8040B0F4B98474A
:1010A000012384F8463084F83E3084F83F3084F8D9
:1010B000403084F8413084F8423084F8433084F87A
:1010C000443084F8453084F83D30002010BD80F86D
:1010D0003C30034B9847DBE70120704721100008A4
:1010E0001D0E000870477047704700F10803436009
:1010F0004FF0FF328260C3600361002303607047DA
:1011000000230361704743684B609A688A605160AE
:1011100099600861036801330360704730B40D685B
:10112000B5F1FF3F11D000F108031C465B681A6857
:10113000AA42FAD963684B6099608C60616008616B
:1011400003680133036030BC70470469F2E7036948
:10115000416882688A60416851605A68824206D05C
:10116000002202611A68013A1A60186870478268A2
:101170005A60F5E710B50446064B9847A26BE36B3F
:101180009A4204D00024044B9847204610BD012405
:10119000F9E700BFF52C0008392D000810B504460A
:1011A000054B9847A36B23B90124044B984720466D
:1011B00010BD0024F9E700BFF52C0008392D000808
:1011C00070B504461546866B026C5AB903681BB1AC
:1011D00000200136A66370BD4068174B9847002376
:1011E0006360F6E76DB98068144B9847226CA3687A
:1011F0001344A3606268934219D32368A36028460E
:10120000E7E7C0680D4B9847226C5142E3689B1A90
:10121000E3602268934202D263680B44E360022DCC
:1012200001D00020D5E726B1013E0020D1E72846B5
:10123000CFE70020CDE700BFC5220008D52F00086A
:101240000346026C6AB110B50846D9681144D960EA
:101250005C68A14201D31968D960D968014B9847ED
:1012600010BD7047D52F000838B505461A4B984772
:1012700095F8454064B203E0184B9847013C64B2CE
:10128000002C08DD6B6A33B105F12400144B98473C
:101290000028F3D0F0E7FF2385F84530114B98473D
:1012A0000D4B984795F8444064B203E00B4B9847C8
:1012B000013C64B2002C08DD2B6933B105F110004C
:1012C000074B98470028F3D0F0E7FF2385F8443018
:1012D000044B984738BD00BFF52C00089922000840
:1012E0005D210008392D000838B5E0B10D460446EF
:1012F0001D4B98472168E26B236C03FB0210606072
:101300000020A063A160013A02FB0313E360FF2306
:1013100084F8443084F84530EDB9236963B9134B40
:101320009847012038BD4FF0500383F31188BFF375
:101330006F8FBFF34F8FFEE704F110000C4B9847FF
:101340000028ECD00B4B4FF080521A60BFF34F8F48
:10135000BFF36F8FE3E704F11000074DA84704F1D6
:101360002400A847DBE700BFF52C0008392D000852
:101370005D21000804ED00E0EB10000838B51D46C3
:10138000049C0B4649B92460E06323640121204694
:10139000034B984784F84C5038BD2260F4E700BFF7
:1013A000E912000840B94FF0500383F31188BFF3EE
:1013B0006F8FBFF34F8FFEE730B585B01C460546F3
:1013C00053B192B189B94FF0500383F31188BFF341
:1013D0006F8FBFF34F8FFEE74FF0500383F31188F9
:1013E000BFF36F8FBFF34F8FFEE76AB150230393B4
:1013F000039B502B13D04FF0500383F31188BFF39E
:101400006F8FBFF34F8FFEE70029EFD04FF05003EF
:1014100083F31188BFF36F8FBFF34F8FFEE7012374
:1014200084F8463000949DF820302846024DA847A5
:10143000204605B030BD00BF7D130008F0B585B073
:10144000019288B10E461D460446B1B1022D20D14D
:10145000E36B012B1DD04FF0500383F31188BFF3D2
:101460006F8FBFF34F8FFEE74FF0500383F3118868
:10147000BFF36F8FBFF34F8FFEE7036C002BE5D0F8
:101480004FF0500383F31188BFF36F8FBFF34F8F7B
:10149000FEE7494B9847074658B9019B002B44D0BB
:1014A0004FF0500383F31188BFF36F8FBFF34F8F5B
:1014B000FEE7002739E02A46314620463F4B984751
:1014C000626A6AB938B13E4B4FF080521A60BFF37E
:1014D0004F8FBFF36F8F3B4B9847012005B0F0BD96
:1014E00004F12400384B98470028F4D0344B4FF0D7
:1014F00080521A60BFF34F8FBFF36F8FEBE7314B12
:1015000098470020EAE702A8304B9847012719E0E6
:10151000002384F8443021E0002384F8453023E0A0
:1015200020462B4B98472B4B98472B4B9847A26B49
:10153000E36B9A42BFD3022DBDD0019B002BDED0BE
:10154000002FE0D01F4B9847244B9847224B9847D9
:1015500094F844305BB2B3F1FF3FD9D094F84530F2
:101560005BB2B3F1FF3FD7D0164B984701A902A851
:101570001B4B9847C8B920461A4B98470028CFD034
:10158000019904F11000184B98472046104B9847DA
:10159000104B98470028C8D1094B4FF080521A6071
:1015A000BFF34F8FBFF36F8FBFE72046084B9847BD
:1015B000084B9847002091E7A5220008C1110008B8
:1015C00004ED00E0392D00085D210008F12100083C
:1015D00069120008ED1E0008F52C0008AD1D00087A
:1015E0000922000875110008E52000082DE9F843DC
:1015F00090B1894690461F460446B1B1022F20D1D2
:10160000E36B012B1DD04FF0500383F31188BFF320
:101610006F8FBFF34F8FFEE74FF0500383F31188B6
:10162000BFF36F8FBFF34F8FFEE7036C002BE5D046
:101630004FF0500383F31188BFF36F8FBFF34F8FC9
:10164000FEE71E4B9847EFF311864FF0500383F3EC
:101650001188BFF36F8FBFF34F8FA26BE36B9A427A
:1016600006D3022F04D0002086F31188BDE8F8834A
:1016700094F845506DB23A4649462046104B98477B
:10168000B5F1FF3F05D06B1C5BB284F845300120FB
:10169000EAE7636A0BB90120E6E704F12400094B8D
:1016A000984730B1B8F1000F05D00120C8F800000C
:1016B000DAE70120D8E70120D6E700BFE52E0008D1
:1016C000C11100085D210008F0B585B0019290B10C
:1016D0000E460446C1B1524B9847074600BB019BDA
:1016E000002B5CD04FF0500383F31188BFF36F8F52
:1016F000BFF34F8FFEE74FF0500383F31188BFF322
:101700006F8FBFF34F8FFEE7036C002BE3D04FF0DA
:10171000500383F31188BFF36F8FBFF34F8FFEE742
:1017200000273CE0314620463E4B9847013DA563EB
:10173000236923B93C4B9847012005B0F0BD04F163
:1017400010003A4B98470028F4D0394B4FF08052A4
:101750001A60BFF34F8FBFF36F8FEBE7324B9847A1
:101760000020EAE702A8334B9847012721E0002335
:1017700084F8443029E0002384F845302BE02046EB
:101780002D4B98472D4B984709E020462A4B984708
:101790002A4B984720462A4B984700283DD1294B91
:1017A0009847A56B002DBDD1019B002BD6D0002FF3
:1017B000D8D01D4B9847244B9847224B984794F814
:1017C00044305BB2B3F1FF3FD1D094F845305BB207
:1017D000B3F1FF3FCFD0144B984701A902A81B4B90
:1017E00098470028D1D12046154B98470028C6D0ED
:1017F000019904F12400164B984720460E4B984758
:101800000E4B98470028CAD1094B4FF080521A60FE
:10181000BFF34F8FBFF36F8FC1E700208DE700BF8D
:10182000A522000841120008392D00085D2100089A
:1018300004ED00E0F121000869120008ED1E000827
:101840009D110008F52C0008AD1D000809220008B4
:10185000E5200008002300E00133072B0BD8064ADF
:1018600052F83320002AF7D1034A42F8331002EB32
:10187000C3035860704770478019002070B5044654
:101880000D461646124B984794F844305BB2B3F1BC
:10189000FF3F0DD094F845305BB2B3F1FF3F0BD062
:1018A0000C4B9847A36B5BB120460B4B984770BD20
:1018B000002384F84430EDE7002384F84530EFE757
:1018C0003246294604F12400044B9847ECE700BF58
:1018D000F52C0008392D0008691200081D210008A8
:1018E000084B1B681B6823B9074B4FF0FF321A6087
:1018F0007047044B1B68DB68DB685A68024B1A6050
:10190000704700BF30000020D80400202DE9F84FB8
:1019100080460D46174699460A9EDDF82CA00C9C81
:101920009200A521206B1D4B9847236B07F1804245
:10193000013A03EB820727F0070700220F2A07D896
:10194000A95CA31883F83410AB5C0BB10132F5E746
:10195000002384F84330372E00D93726E662E66448
:1019600000252565201DDFF83CB0D84704F118009C
:10197000D8472461C6F13806A6616462656584F8BB
:1019800058504A4641463846054B98472060BAF1C0
:10199000000F01D0CAF80040BDE8F88FF12F000811
:1019A000A92C00080111000870B50024372C08D8B4
:1019B00004EB840293000C4818440C4B9847013404
:1019C000F4E70B4E3046094CA0470A4D2846A04785
:1019D0000948A0470948A0470948A047094B1E608D
:1019E000094B1D6070BD00BF38000020EB100008DF
:1019F000B0040020C4040020E00400200C050020F6
:101A0000F8040020300000203400002010B5044607
:101A1000224B9847224A136801331360214B1B68FD
:101A20005BB1214B1B686BB91E4B1B68DA6AE36A1A
:101A30009A4207D81B4B1C6004E01A4B1C601368C9
:101A4000012B27D0194A1368013313606364E06ADD
:101A5000174B1B68984201D9154B186000EB8000AA
:101A6000211D144B03EB8000134B9847134B9847F1
:101A70000D4B1B686BB10B4B1B68DA6AE36A9A4229
:101A800007D20F4B4FF080521A60BFF34F8FBFF356
:101A90006F8F10BD0B4B9847D4E700BFF52C0008A3
:101AA000980400202C000020F4040020A80400204A
:101AB000AC0400203800002007110008392D000870
:101AC00004ED00E0A919000838B5044690F8593033
:101AD00063B1012B10D0022B0DD04FF0500383F3D4
:101AE0001188BFF36F8FBFF34F8FFEE7006B044D7C
:101AF000A8472046A84738BD014B9847FBE700BFE1
:101B0000CD2B00080F4B1B68D3B110B50E4B984777
:101B10000E4BDB68DC68201D0D4B98470D4A13689F
:101B2000013B1360074A1368013B13600A4B984757
:101B300020460A4B9847034B1B68002BE6D110BD8B
:101B4000704700BF9C040020F52C00080C05002005
:101B50004F11000898040020392D0008C91A000808
:101B600008B5074B9847074B1B68012BF9D9064B63
:101B70004FF080521A60BFF34F8FBFF36F8FF0E7C3
:101B8000051B00083800002004ED00E070B5044695
:101B90000D46174B1E68174B18680430164B9847B4
:101BA000B4F1FF3F0DD03444124B1B685C60A64279
:101BB00010D9124B18680F4B19680431104B984715
:101BC00070BD002DEFD00B4B196804310D480E4B42
:101BD0009847F5E70D4B1868064B19680431084B18
:101BE00098470B4B1B68A342EAD9094B1C60E7E7F7
:101BF000200500202C0000204F1100083400002098
:101C00001D110008F8040020071100083000002012
:101C1000D804002070B586B00B9D0C9C75B1B4B192
:101C20005C260496049E5C2E1AD04FF0500383F37A
:101C30001188BFF36F8FBFF34F8FFEE74FF0500354
:101C400083F31188BFF36F8FBFF34F8FFEE74FF021
:101C5000500383F31188BFF36F8FBFF34F8FFEE7FD
:101C60002563022584F8595000250395029405AD9B
:101C700001950A9D0095044DA8472046034B9847BF
:101C8000059806B070BD00BF0D1900080D1A0008B8
:101C90002DE9F04385B005460E461446984690005F
:101CA000154A904700B381465C20134B984707467E
:101CB000B0B1C0F83090E7B1002387F859300393F2
:101CC00002970D9B01930C9B00934346224631469D
:101CD00028460A4CA0473846094B9847012005E0A2
:101CE0004846084B9847E6E74FF0FF3005B0BDE89F
:101CF000F0834FF0FF30F9E7CD2A00080D190008F6
:101D00000D1A0008CD2B000810B588B000240594EA
:101D1000069407AA06A905A81B4B9847059B0293A2
:101D2000069B019300942346079A18491848194CBA
:101D3000A04748B1184B98470346012B06D0B3F192
:101D4000FF3F18D008B010BD0023F6E74FF0500356
:101D500083F31188BFF36F8FBFF34F8F0F4B4FF09B
:101D6000FF321A600E4B01221A600E4B00221A60DD
:101D70000D4B9847E6E74FF0500383F31188BFF30C
:101D80006F8FBFF34F8FFEE7E5290008743000081E
:101D9000611B0008151C000849240008D804002015
:101DA000F4040020200500201D2E0008024A1368BC
:101DB00001331360704700BFA4040020014B186872
:101DC000704700BF20050020F8B53A4B1B68002B78
:101DD00065D1394B1D6801351D60C5B9374B1B688E
:101DE0001B6843B14FF0500383F31188BFF36F8F2B
:101DF000BFF34F8FFEE7314A1168314B186810600E
:101E00001960304A1368013313602F4B98472F4BEA
:101E10001B68AB420CD900242D4B1B68DB6A03EB1B
:101E200083039A002B4B9B58012B3DD901243BE0A7
:101E3000002416E0254B4FF0FF321A60ECE7234AEE
:101E40001360E9E703EB83039A0039462148104405
:101E5000214B9847F26A1E4B1B68DB6A9A4200D3FB
:101E60000124164B1B681B68002BE3D0134B1B6827
:101E7000DB68DE6873689D42E1D3371D3846174B37
:101E80009847B36A1BB106F11800144B9847F36AE0
:101E9000134A12689342D5D9114A1360D2E7114A06
:101EA00013680133136000240F4B1B6803B1012436
:101EB0002046F8BDA40400202005002030000020AA
:101EC00034000020DC040020E1180008D8040020C1
:101ED0002C00002038000020071100084F110008D6
:101EE000AC040020A004002024050020334B1B6814
:101EF00043B94FF0500383F31188BFF36F8FBFF3E3
:101F00004F8FFEE770B52E4B98472C4B1A68013A5D
:101F10001A601B68002B4CD12A4B1B680BB900249C
:101F200048E00024284B1B6813B3274BDB68DC68B0
:101F300004F11800254EB047251D2846B047E06A39
:101F4000234B1B68984201D9214B186000EB80009D
:101F50002946204B03EB80001F4B9847E26A1F4B3A
:101F60001B68DB6A9A42DDD31D4B01221A60D9E758
:101F70000CB11C4B98471C4B1C6874B9184B1C685F
:101F8000C4B11A4B4FF080521A60BFF34F8FBFF3AA
:101F90006F8F01240EE0013C07D0154B98470028B5
:101FA000F9D00F4B01221A60F5E70F4B00221A609F
:101FB000E4E700240F4B9847204670BDA40400209E
:101FC000F52C000898040020E00400204F110008C0
:101FD000AC04002038000020071100082C0000206D
:101FE00024050020E1180008A004002004ED00E012
:101FF000C91D0008392D000810B5A8B104460F4BC3
:102000001B6843B14FF0500383F31188BFF36F8F08
:10201000BFF34F8FFEE70A4B984700212046094B3C
:102020009847094B984738B9084B4FF080521A60CF
:10203000BFF34F8FBFF36F8F10BD00BFA40400200C
:10204000AD1D00088D1B0008ED1E000804ED00E02A
:102050001F4B1B681BB11F4B01221A6070471D4BA1
:1020600000221A601C4B1B6803EB83018A001B498A
:102070008A585AB90BB1013BF6E74FF0500383F38E
:102080001188BFF36F8FBFF34F8FFEE710B403EBE0
:10209000830082000A4450684068506003EB830468
:1020A000A20014460832114488420CD003EB83028C
:1020B00091000A4A0A445268D168094A1160064AE6
:1020C000136010BC70474068044A22445060EDE73A
:1020D000A404002024050020AC04002038000020C7
:1020E0002C00002058B110B50C46094B1968183166
:1020F000084B984701212046074B984710BD4FF0E9
:10210000500383F31188BFF36F8FBFF34F8FFEE748
:102110002C0000201D1100088D1B000838B570B17F
:102120000C4615460A4B196818310A4B98470DB1F1
:102130004FF0FF3429462046074B984738BD4FF0F3
:10214000500383F31188BFF36F8FBFF34F8FFEE708
:102150002C000020071100088D1B000838B5C3684B
:10216000DC6824B304F118052846194B9847194B2D
:102170001B682BBB251D2846154B9847E06A164B5C
:102180001B68984201D9144B186000EB8000294667
:10219000124B03EB8000124B9847E26A114B1B680D
:1021A000DB6A9A4211D901200F4B18600EE04FF004
:1021B000500383F31188BFF36F8FBFF34F8FFEE798
:1021C00029460A48064B9847E7E7002038BD00BF7C
:1021D0004F110008A4040020AC04002038000020A7
:1021E000071100082C00002024050020E004002036
:1021F000034B1B680360034B1B684360704700BFC1
:10220000DC04002020050020F8B5C8B10C460546C6
:10221000F9B11C4B98471C4B19686B68C81A2268A7
:10222000B2F1FF3F26D02F68184E3668B74201D072
:102230008B4224D9824215D80023236001241AE05E
:102240004FF0500383F31188BFF36F8FBFF34F8FAD
:10225000FEE74FF0500383F31188BFF36F8FBFF396
:102260004F8FFEE75B1A134423602846084B9847BC
:10227000002400E00024074B98472046F8BD0124C5
:10228000F9E700BFF52C000820050020DC04002041
:10229000F1210008392D0008014B01221A60704716
:1022A00024050020054B1B6833B1054B1B680BB19F
:1022B000002070470220704701207047F40400207E
:1022C000A404002000283BD038B504461E4B1B68F0
:1022D000834208D04FF0500383F31188BFF36F8F10
:1022E000BFF34F8FFEE7036D43B94FF0500383F305
:1022F0001188BFF36F8FBFF34F8FFEE7013B03657C
:10230000C16AC26C91421DD00BB1002038BD051DC1
:1023100028460E4B9847E06CE062C0F13803A36199
:102320000B4B1B68984201D9094B186000EB8000E9
:102330002946084B03EB8000074B98470120E5E74F
:10234000002070470020E1E72C0000204F1100081A
:10235000AC0400203800002007110008064B1A6862
:102360001368B3FA83F35B09036013B9D368186881
:1023700070470020704700BF2805002008B5416065
:10238000006191420CD8D21A83699A4201D301208C
:1023900008BD011D094B1868094B98470020F7E755
:1023A0009A4201D2994206D2011D064B1868044B8D
:1023B00098470020ECE70120EAE700BF2C05002049
:1023C0001D1100082805002070B582B0114B9847F8
:1023D000114B1B681BB1114B984702B070BD104DDB
:1023E0002846104EB047104C2046B0470F4B1D609A
:1023F0000F4B1C60002300930E4B0F4A10210A2044
:102400000E4CA047044B18600028E4D00C490D4B3B
:102410009847E0E7F52C00084C060020392D00080D
:10242000D0050020EB100008E4050020280500205E
:102430002C050020FC05002030050020A513000815
:102440007C3000085518000810B588B0134B984729
:10245000134B1B68CBB100240594069407AA06A968
:1024600005A8104B9847059B0293069B01930223F6
:1024700000932346079A0C490C480D4CA0470D4A7F
:10248000106010B1012008B010BD4FF0500383F36D
:102490001188BFF36F8FBFF34F8FFEE7C92300088A
:1024A0004C060020FD29000884300008F1270008B0
:1024B000151C000850060020C0B110B584B01446A9
:1024C0001A4603461648006838B3009101940293F7
:1024D00005291CDC134B9847022810D000231A460C
:1024E00069460F480068104CA04714E04FF05003B5
:1024F00083F31188BFF36F8FBFF34F8FFEE7002385
:10250000069A694606480068074CA04703E0002386
:102510006946064CA04704B010BD0020FBE700BF91
:102520004C060020A52200083D140008ED15000807
:1025300070B582B01B4B1B681A68002A2AD0DB6872
:102540001E68DC68251D2846174B9847636A20469D
:102550009847E369012BEDD1A36933449E4207D22A
:102560006360246129460F4B1868104B9847E1E7D8
:10257000002100910B46324620460D4CA047002812
:10258000D8D14FF0500383F31188BFF36F8FBFF39F
:102590004F8FFEE7074A106802490860136002B0D7
:1025A00070BD00BF280500204F1100081D11000854
:1025B000B92400082C05002038B50546084B98477B
:1025C0000446084B1B68834205D800232B60054B4B
:1025D0001C60204638BD044B984701232B60F6E76A
:1025E000BD1D0008F80500203125000870B582B037
:1025F00005460E46144B1B68DB68DC68201D134B38
:102600009847E369012B04D0636A2046984702B0DB
:1026100070BDA1692B463246294420460C4EB04776
:102620000028F1D0002100910B462A462046094D92
:10263000A8470028E8D14FF0500383F31188BFF377
:102640006F8FBFF34F8FFEE7280500204F11000862
:102650007D230008B924000870B582B006460C46F8
:10266000174B984701A8174B9847019B1BBB054682
:102670000CB9B04218D22CB1134B1B681C68B4FAC9
:1026800084F464092246711B104B1868104B98475C
:10269000104B984788B9104B4FF080521A60BFF327
:1026A0004F8FBFF36F8F08E00A4B9847294630469B
:1026B0000A4B984701E0074B984702B070BD00BF36
:1026C000AD1D0008B92500082C0500204C0600208F
:1026D0007D180008ED1E000804ED00E0ED2500085F
:1026E00030B589B006E007990698059B9847049B8A
:1026F000002B0BDA002204A9364B1868364B98479A
:10270000002865D0049B002BF1DAECE7069C636996
:1027100013B1201D314B984703A8314B9847049BB8
:10272000092BE7D801A252F823F000BF5527000873
:102730005527000855270008F52600089B270008A4
:10274000C12700085527000855270008F52600086E
:102750009B270008059BA169024619442046214D8C
:10276000A8470028C6D0636A20469847E369012B32
:10277000C0D1A269002100910B4605980244204671
:10278000194CA0470028B5D14FF0500383F31188AE
:10279000BFF36F8FBFF34F8FFEE70599A16131B192
:1027A00003460246014420460E4CA047A2E74FF0E4
:1027B000500383F31188BFF36F8FBFF34F8FFEE792
:1027C00094F82C30002B95D12046084B984791E780
:1027D00009B030BD4C060020C91600084F11000892
:1027E000B92500087D230008B9240008CD2B000876
:1027F00000B583B001A8044B98470199034B984753
:10280000034B9847F6E700BF5D23000859260008F0
:10281000E1260008EFF3058393B9EFF3108393B932
:102820000C4B1868022804D080B90A4B01221A60A8
:102830007047EFF31183002BF6D06FF0050070475F
:102840006FF0050070476FF0050070474FF0FF30E4
:10285000704700BFB008002008B5EFF30583B3B997
:10286000EFF31083B3B90E4B1B68022B08D0012B7A
:1028700013D10B4B02221A600A4B9847002008BD67
:10288000EFF31182002AF2D06FF00500F7E76FF046
:102890000500F4E76FF00500F1E74FF0FF30EEE7D9
:1028A000B0080020091D0008F0B587B0002404948A
:1028B000EFF30584002C43D1EFF31083002B3FD1BD
:1028C000334B1B68022B21D0002839D000238DF810
:1028D000173062B31568EDB1936903B918235C1E14
:1028E000372C51D8546814F0010F4FD15669A6B156
:1028F0004FEA960C94682CB1D7685B2F02D9176900
:1029000007B106BB64B14FF0FF3416E0EFF311835B
:10291000B3B9D9E70DF11705DEE74FF0800CE9E711
:10292000D46894B914699CB14FF0FF3405E00024D9
:1029300018234FF0800C0DF11705012C0AD0ACB113
:10294000049807B0F0BD0124F7E74FF0FF34F4E737
:102950000024F2E7146992680292019400930B46F6
:10296000624629460B4CA0470490E9E704AA01926D
:1029700000930B461FFA8CF22946074CA04701280A
:10298000DED000230493DBE70020DAE70020D8E75D
:10299000B0080020151C0008911C000808B5EFF3D2
:1029A0000583A3B9EFF31083A3B90C4B1B68022B6B
:1029B00002D040B9002008BDEFF31183002BF8D0FE
:1029C0006FF00500F7E7064B98470020F3E76FF03C
:1029D0000500F0E76FF00500EDE700BFB00800204C
:1029E000F91F0008034B0360034B0B608023136047
:1029F000704700BF5408002054060020034B0360BA
:102A0000034B0B604FF4807313607047B40C0020CD
:102A1000B4080020124A12F0070F1ED0D11D21F079
:102A20000701C1F5406313440A460E4802600021C5
:102A300041601344083B23F007030B4803605960CF
:102A40001960991A51601360084B1960084B19609E
:102A5000084B4FF000421A6070474FF44063E4E7C0
:102A6000140D002020190020100D00201C1900203A
:102A7000181900201419002010B4124B1A461B68B4
:102A80008342FBD351685418844209D041684418EA
:102A9000A3420AD00360904200D0106010BC70477F
:102AA0004068014451601046F0E7074C2468A34297
:102AB00006D05B681944416013681B680360EAE74D
:102AC0000460E8E720190020100D002070B50446CE
:102AD000354B9847354B1B68A3B1354B1B681C42DF
:102AE0004AD134B1083414F0070F02D024F007049F
:102AF0000834002C42D02F4B1B68A3424DD32E4BE1
:102B00001D6804E02D4B9847E7E72B4615466A6899
:102B1000A24202D22A68002AF7D1244A1268AA42A5
:102B20003DD01E6808362A681A606B681B1B102B84
:102B300010D9281910F0070F08D04FF0500383F375
:102B40001188BFF36F8FBFF34F8FFEE743606C6058
:102B50001B4B98476A6817490B689B1A0B60194909
:102B600009688B4201D217490B60114B1B68134354
:102B70006B6000232B6002E0002600E00026124B71
:102B8000984716F0070F0CD04FF0500383F31188CD
:102B9000BFF36F8FBFF34F8FFEE70026EFE70026EE
:102BA000EDE7304670BD00BFAD1D0008100D0020E0
:102BB000141900201819002020190020152A0008D7
:102BC000792A00081C190020ED1E0008002830D0CA
:102BD00038B50446A0F1080550F8043C154A1268BF
:102BE000134208D14FF0500383F31188BFF36F8F66
:102BF000BFF34F8FFEE750F8081C41B14FF0500370
:102C000083F31188BFF36F8FBFF34F8FFEE723EA83
:102C1000020340F8043C084B984754F8041C074A48
:102C200013680B4413602846054B9847054B98479B
:102C300038BD704714190020AD1D00081819002078
:102C4000792A0008ED1E000882B0002301930D4B85
:102C50001B68B3F1FF3F08D04FF0500383F3118896
:102C6000BFF36F8FBFF34F8FFEE74FF0500383F337
:102C70001188BFF36F8FBFF34F8F019B002BFCD0E8
:102C800002B070470C00002006480068006880F31E
:102C9000088862B661B6BFF34F8FBFF36F8F00DF56
:102CA00000BF000008ED00E04FF0807340F8043CE6
:102CB00021F0010140F8081C034B40F80C3C40F89F
:102CC000202C4038704700BF492C0008000000004D
:102CD000074B19680868B0E8F00F80F30988BFF364
:102CE0006F8F4FF0000080F311884EF00D0E70478B
:102CF0002C0000204FF0500383F31188BFF36F8F37
:102D0000BFF34F8F0A4A136801331360012B00D0C1
:102D10007047084B1B6813F0FF0FF9D04FF05003BA
:102D200083F31188BFF36F8FBFF34F8FFEE700BFB0
:102D30000C00002004ED00E0094B1B6843B94FF084
:102D4000500383F31188BFF36F8FBFF34F8FFEE7FC
:102D5000013B034A13600BB983F31188704700BF2E
:102D60000C00002000000000000000000000000037
:102D7000EFF30980BFF36F8F0D4B1A6820E9F00F56
:102D800010602DE908404FF0500080F31188FFF7E4
:102D90005FF94FF0000080F31188BDE80840196822
:102DA0000868B0E8F00F80F30988BFF36F8F7047B1
:102DB0002C00002008B54FF0500383F31188BFF3B7
:102DC0006F8FBFF34F8F054B984718B1044B4FF0EF
:102DD00080521A60002383F3118808BDC91D0008C2
:102DE00004ED00E0084A0023136008490B60084B1B
:102DF0001B680849A1FB03139B09013B06490B60B3
:102E000007231360704700BF10E000E018E000E007
:102E100008000020D34D621014E000E010B582B02D
:102E2000274B1A78D2B20192FF221A701B78DBB2BC
:102E30008DF803309DF8033003F05003214A1370DE
:102E4000214B07221A609DF8033013F0800F0AD03F
:102E50001D4A1368013B13609DF803305B00DBB231
:102E60008DF80330EFE7184B1B68032B08D04FF0A9
:102E7000500383F31188BFF36F8FBFF34F8FFEE7CB
:102E80001B0203F4E063104A1360019BDBB20C4A9F
:102E900013700E4B1A6842F470021A601A6842F0FE
:102EA00070421A600A4B984700240A4B1C600A4B78
:102EB00098470A4B98470A4B9847204602B010BDE6
:102EC00000E400E0281900202C19002020ED00E08B
:102ED000E52D00080C000020892C00085120000876
:102EE000492C0008EFF305830F2B0FD9104A9B5C88
:102EF000DBB2104A12789A4208D94FF0500383F39C
:102F00001188BFF36F8FBFF34F8FFEE70A4B1B682B
:102F100003F4E063094A1268934208D94FF0500362
:102F200083F31188BFF36F8FBFF34F8FFEE77047B6
:102F3000F0E300E0281900200CED00E02C1900203F
:102F4000002103E00B4B5B58435004310A480B4B04
:102F500042189A42F6D30A4A02E0002342F8043BA0
:102F6000084B9A42F9D3FEF7BFF800F00FF8FDF7CF
:102F700031F9704794300008000000201000002054
:102F800010000020C0190020FEE7000070B50026E8
:102F90000C4D0D4C641BA410A64209D100F030F872
:102FA00000260A4D0A4C641BA410A64205D170BD30
:102FB00055F8043B98470136EEE755F8043B98472F
:102FC0000136F2E78C3000088C3000088C300008A5
:102FD000903000080A44914200F1FF3300D170475D
:102FE00010B511F8014B914203F8014FF9D110BD12
:102FF00003460244934200D1704703F8011BF9E7EE
:10300000F8B500BFF8BC08BC9E467047F8B500BFD5
:08301000F8BC08BC9E467047A5
:1030180064656661756C745461736B0018300008E0
:103028000000000000000000000000000000000098
:10303800000200001800000000000000000000006E
:1030480002030405060708090A0B0C0D0E0F1010E1
:10305800000000000000000000000000010203045E
:1030680006070809000000000102030449444C4512
:1030780000000000546D725100000000546D722071
:043088005376630018
:04308C003501000802
:043090001101000822
:1030940001000000100000000024F400AAAAAAAA5B
:0400000508002F417F
:00000001FF
