:020000040800F2
:100000000028002051160008BB010008BD010008AF
:10001000BF010008C1010008C30100080000000082
:10002000000000000000000000000000C501000802
:10003000C701000800000000C9010008CB0100084A
:1000400099160008991600089916000899160008D4
:100050009916000899160008D3010008DD01000870
:1000600099160008991600089916000899160008B4
:1000700099160008991600089916000899160008A4
:100080009916000899160008991600089916000894
:100090009916000899160008991600089916000884
:1000A00099160008E9010008991600089916000839
:1000B000991600089916000800000000991600081B
:1000C00099160008000000000000000099160008C2
:1000D00000000000991600089916000800000000B2
:1000E00099160008991600089916000800000000EB
:1000F0000000000000000000000000000000000000
:0C01000000000000000000005FF808F1A3
:10010C0010B5054C237833B9044B13B10448AFF345
:10011C0000800123237010BD0C00002000000000A3
:10012C00F416000808B5034B1BB103490348AFF3A1
:10013C00008008BD0000000010000020F41600082C
:10014C0010B590B02422002107A801F0C5FA0024B4
:10015C0001940294039404940594022306930123BE
:10016C000A9310230B9306A800F0DCFC0F230193D9
:10017C000294039404940594214601A800F010FF06
:10018C0010B010BD08B500F093FCFFF7D9FF01F0DB
:10019C00FFF901F089F9044C204600F0FBF800212E
:1001AC00204600F099FBFEE73000002070477047B6
:1001BC00FEE7FEE7FEE7FEE770477047704708B5BD
:1001CC0000F088FC08BD08B5012001F0ABF808BDB3
:1001DC0008B5022001F0A6F808BD000008B50248D9
:1001EC0000F00EF908BD00BF3000002082B00E4BAD
:1001FC009A6942F001029A619A6902F00102009236
:10020C00009ADA6942F08052DA61DB6903F08053BC
:10021C000193019B054A536823F0E06343F080632C
:10022C00536002B0704700BF001002400000014054
:10023C0070B4036A23F001030362036A466882699F
:10024C0022F073020C6844EA020523F002028B6868
:10025C0013430D4CA04209D00B4CA0420DD046606C
:10026C0085614A684263036270BC704723F00803DF
:10027C00CA68134323F00403EEE726F440764A6978
:10028C0032438E691643EAE7002C014030B4036A0E
:10029C0023F480730362036A4568C26922F0730217
:1002AC000C68224323F400738C6843EA04230F4C3C
:1002BC00A04209D00D4CA0420ED04560C2614A68E4
:1002CC00C263036230BC704723F40063CC6843EA1A
:1002DC00042323F48063EDE725F440554C6945EA8B
:1002EC0004158C6945EA0415E7E700BF002C0140B2
:1002FC0030B4036A23F480530362036A4468C2690E
:10030C0022F4E6420D6842EA052223F400538D687C
:10031C0043EA0533074DA84206D04460C2614A68DF
:10032C000264036230BC704724F480444D6944EA93
:10033C008514F2E7002C014030B4036A056A25F0FD
:10034C0001050562846924F0F00444EA021423F0E8
:10035C000A030B438461036230BC704730B4056AF6
:10036C0025F0100505628469036A24F4704444EA9C
:10037C00023423F0A00343EA01138461036230BC0E
:10038C007047836823F070030B4343F007038360CB
:10039C007047000090F83D30DBB2012B23D10223D3
:1003AC0080F83D300268D36843F00103D3600368E2
:1003BC000F4A93420CD0B3F1804F09D0A2F594327E
:1003CC00934205D01A6842F001021A60002070476F
:1003DC009A6802F00702062A07D01A6842F0010256
:1003EC001A6000207047012070470020704700BF42
:1003FC00002C01407047704770477047704770473A
:10040C0010B5044603681A6912F0020F11D0DA68AD
:10041C0012F0020F0DD06FF002021A610123037764
:10042C0003689B6913F0030F70D0FFF7E6FF0023FE
:10043C00237723681A6912F0040F12D0DA6812F0CD
:10044C00040F0ED06FF004021A6102232377236885
:10045C009B6913F4407F5FD02046FFF7CEFF00234B
:10046C00237723681A6912F0080F12D0DA6812F099
:10047C00080F0ED06FF008021A610423237723684B
:10048C00DB6913F0030F4ED02046FFF7B6FF0023B5
:10049C00237723681A6912F0100F12D0DA6812F061
:1004AC00100F0ED06FF010021A6108232377236807
:1004BC00DB6913F4407F3DD02046FFF79EFF0023FD
:1004CC00237723681A6912F0010F03D0DA6812F04F
:1004DC00010F36D123681A6912F0800F03D0DA6845
:1004EC0012F0800F34D123681A6912F0400F03D038
:1004FC00DA6812F0400F32D123681A6912F0200F1B
:10050C0003D0DA6812F0200F30D110BDFFF774FF62
:10051C002046FFF773FF8AE72046FFF76DFF204662
:10052C00FFF76CFF9BE72046FFF766FF2046FFF7BF
:10053C0065FFACE72046FFF75FFF2046FFF75EFF45
:10054C00BDE76FF001021A612046FFF754FFC1E7C7
:10055C006FF080021A61204600F082FAC3E76FF058
:10056C0040021A612046FFF74AFFC5E76FF02002F0
:10057C001A61204600F073FAC7E700000368174AB7
:10058C00904206D0B0F1804F03D0A2F59432904245
:10059C0003D123F070034A681343104A904206D0EB
:1005AC00B0F1804F03D0A2F59432904203D123F4E2
:1005BC004073CA68134323F080034A6913430360F2
:1005CC008B68C3620B688362044B984202D0012390
:1005DC00436170470B690363F9E700BF002C0140CE
:1005EC0040B310B5044690F83D30F3B1022384F8C3
:1005FC003D30214651F8040BFFF7C0FF012384F86E
:10060C00463084F83E3084F83F3084F8403084F82B
:10061C00413084F8423084F8433084F8443084F814
:10062C00453084F83D30002010BD80F83C3000F09F
:10063C00F3FEDBE70120704740B310B5044690F899
:10064C003D30F3B1022384F83D30214651F8040BC0
:10065C00FFF794FF012384F8463084F83E3084F889
:10066C003F3084F8403084F8413084F8423084F8CC
:10067C00433084F8443084F8453084F83D30002011
:10068C0010BD80F83C30FFF7B5FEDBE7012070476A
:10069C0030B4036A23F010030362036A446882696E
:1006AC0022F4E6420D6842EA052223F020038D680D
:1006BC0043EA05130E4DA84209D00D4DA8420ED0A9
:1006CC00446082614A688263036230BC704723F0E5
:1006DC008003CD6843EA051323F04003EDE724F4CF
:1006EC0040644D6944EA85048D6944EA8504E7E772
:1006FC00002C014038B590F83C30012B60D00446FA
:10070C000D46012380F83C300C2A1AD8DFE802F0A1
:10071C00071919191D1919193119191944000068EB
:10072C00FFF786FD2268936943F008039361226802
:10073C00936923F0040393612268936929690B433D
:10074C009361002084F83C0038BD0068FFF7A0FFDF
:10075C002268936943F4006393612268936923F4DC
:10076C008063936122689369296943EA0123936149
:10077C00E7E70068FFF78AFD2268D36943F00803B6
:10078C00D3612268D36923F00403D3612268D3694F
:10079C0029690B43D361D4E70068FFF7A9FD2268F0
:1007AC00D36943F40063D3612268D36923F4806373
:1007BC00D3612268D369296943EA0123D361C0E775
:1007CC000220C1E710B4846824F47F4442EA032277
:1007DC000A432243826010BC704790F83C30012BD6
:1007EC0066D010B50446012380F83C30022380F813
:1007FC003D300268936823F47F4323F077039360C2
:10080C000B68602B40D022D8402B47D00BD9502BF3
:10081C000ED1CA6849680068FFF78EFD5021206828
:10082C00FFF7AFFD04E0202B0CD008D9302B09D0FA
:10083C00012384F83D30002084F83C0010BD0BB13E
:10084C00102BF5D119462068FFF79BFDF0E7702BB4
:10085C000ED0B3F5005FEBD1CB684A6889680068AD
:10086C00FFF7B0FF2268936843F480439360DFE79F
:10087C00CB684A6889680068FFF7A4FF2268936810
:10088C0043F077039360D3E7CA6849680068FFF7C1
:10089C0065FD60212068FFF774FDC9E7CA684968E7
:1008AC000068FFF749FD40212068FFF76AFDBFE7AC
:1008BC000220704710B401F01F01012303FA01F468
:1008CC00036A23EA04030362036A02FA01F10B438D
:1008DC00036210BC7047000010B50446084631BBDB
:1008EC0094F83E30DBB2013B18BF0123002B57D1EB
:1008FC00002835D1022384F83E30012201462068BD
:10090C00FFF7D8FF2368284A934239D02368264A38
:10091C0093423AD0B3F1804F37D0A2F59432934240
:10092C0033D01A6842F001021A60002039E0042921
:10093C0008D008290DD094F84130DBB2013B18BF28
:10094C000123D3E794F83F30DBB2013B18BF0123FE
:10095C00CCE794F84030DBB2013B18BF0123C5E76C
:10096C00042805D0082807D0022384F84130C4E7B6
:10097C00022384F83F30C0E7022384F84030BCE700
:10098C005A6C42F400425A64C0E79A6802F00702BB
:10099C00062A07D01A6842F001021A60002000E013
:1009AC00012010BD0020FCE7002C014090F83C30E9
:1009BC00012B27D030B4012380F83C30022380F87F
:1009CC003D3003685C689D6824F070040A6822431B
:1009DC005A6003680C4A934206D0B3F1804F03D09F
:1009EC00A2F59432934204D125F080054A68154350
:1009FC009D60012380F83D30002380F83C30184680
:100A0C0030BC704702207047002C014090F83C30FD
:100A1C00012B22D0012380F83C30CB6823F44073A7
:100A2C008A68134323F480634A68134323F40063F6
:100A3C000A68134323F480530A69134323F40053C5
:100A4C004A69134323F48043CA691343026853640D
:100A5C00002380F83C3018467047022070477047DE
:100A6C007047000010B504460E4B18784FF47A739B
:100A7C00B3FBF0F30C4A1068B0FBF3F000F0B4FCDD
:100A8C0068B90F2C01D901200AE0002221464FF051
:100A9C00FF3000F067FC054B1C60002000E00120DB
:100AAC0010BD00BF00000020080000200400002042
:100ABC0008B5074A136843F010031360032000F0D5
:100ACC003FFC0020FFF7CEFFFFF790FB002008BD96
:100ADC0000200240034A1168034B1B780B4413603F
:100AEC00704700BF2C00002000000020014B18684C
:100AFC00704700BF2C00002082B0084B1B68084ACE
:100B0C00A2FB03235B0A00FB03F3019300BF019BD1
:100B1C005A1E0192002BF9D102B070470800002038
:100B2C00D34D6210002800F0F18170B582B00446FC
:100B3C00036813F0010F2CD0AA4B5B6803F00C0375
:100B4C00042B1DD0A74B5B6803F00C03082B12D0B1
:100B5C006368B3F5803F41D0002B55D103F180433E
:100B6C0003F504331A6822F480321A601A6822F4EE
:100B7C0080221A6037E09B4B5B6813F4803FE7D010
:100B8C00984B1B6813F4003F03D06368002B00F0F4
:100B9C00BF81236813F0020F75D0924B5B6813F082
:100BAC000C0F5FD08F4B5B6803F00C03082B54D0F9
:100BBC002369002B00F089808B4B01221A60FFF710
:100BCC0095FF0546874B1B6813F0020F74D1FFF796
:100BDC008DFF401B0228F5D903209EE1814A136842
:100BEC0043F480331360636843B3FFF77FFF05461C
:100BFC007C4B1B6813F4003FCBD1FFF777FF401BF6
:100C0C006428F5D9032088E1B3F5A02F09D0754BE2
:100C1C001A6822F480321A601A6822F480221A6050
:100C2C00E1E703F18043A3F53C331A6842F48022D8
:100C3C001A601A6842F480321A60D4E7FFF756FF44
:100C4C000546684B1B6813F4003FA2D0FFF74EFF1C
:100C5C00401B6428F5D903205FE1624B5B6813F4F9
:100C6C00803FA5D15F4B1B6813F0020F03D02369A3
:100C7C00012B40F04F815B4A136823F0F803616944
:100C8C0043EAC1031360236813F0080F32D0A36941
:100C9C00002B45D0554B01221A60FFF727FF054664
:100CAC00504B5B6A13F0020F21D1FFF71FFF401B63
:100CBC000228F5D9032030E14A4A136823F0F803DF
:100CCC00616943EAC1031360DDE7474B00221A60F8
:100CDC00FFF70CFF0546434B1B6813F0020FD2D0F5
:100CEC00FFF704FF401B0228F5D9032015E1012072
:100CFC00FFF702FF236813F0040F00F09780394BC5
:100D0C00DB6913F0805F1DD1364BDA6942F08052FB
:100D1C00DA61DB6903F080530193019B012512E03A
:100D2C00324B00221A60FFF7E1FE05462D4B5B6A41
:100D3C0013F0020FDED0FFF7D9FE401B0228F5D9C5
:100D4C000320EAE000252A4B1B6813F4807F11D0A6
:100D5C00E368012B22D0002B38D103F1804303F53B
:100D6C0004331A6A22F001021A621A6A22F004028F
:100D7C001A6218E01E4A136843F480731360FFF77D
:100D8C00B5FE06461A4B1B6813F4807FE0D1FFF7C3
:100D9C00ADFE801B6428F5D90320BEE0114A136A0E
:100DAC0043F001031362E36873B3FFF79FFE06463B
:100DBC000C4B1B6A13F0020F37D1FFF797FE801B09
:100DCC0041F288339842F3D90320A6E0052B11D0C9
:100DDC00044B1A6A22F001021A621A6A22F0040207
:100DEC001A62E0E7001002400000424280044242D6
:100DFC00007000404D4B1A6A42F004021A621A6AE3
:100E0C0042F001021A62CEE7FFF770FE0646474B2E
:100E1C001B6A13F0020F08D0FFF768FE801B41F22B
:100E2C0088339842F3D9032077E0E5B9E369002BC6
:100E3C0072D03E4A526802F00C02082A56D0022B9D
:100E4C0017D03B4B00221A60FFF750FE0446374B7D
:100E5C001B6813F0007F47D0FFF748FE001B0228E9
:100E6C00F5D9032059E0314AD36923F08053D3617B
:100E7C00DCE72F4B00221A60FFF738FE05462B4BA0
:100E8C001B6813F0007F06D0FFF730FE401B0228D2
:100E9C00F5D9032041E0236AB3F5803F1AD02349EA
:100EAC004B6823F47413226A606A024313434B6049
:100EBC001F4B01221A60FFF719FE04461B4B1B68DF
:100ECC0013F0007F0ED1FFF711FE001B0228F5D99D
:100EDC00032022E0154A536823F40033A1680B4326
:100EEC005360DCE7002018E0002016E0012B16D040
:100EFC000E4B5B6803F48031226A914211D103F4EA
:100F0C007013626A93420ED1002006E001207047F4
:100F1C00012002E0012000E0002002B070BD0120A1
:100F2C00FBE70120F9E70120F7E700BF00100240C2
:100F3C006000424286B0164B0FCB0DF1180C0CE939
:100F4C000F0040F20123ADF80430124B5B6803F044
:100F5C000C02082A02D0104806B07047C3F3834233
:100F6C00624412F8102C13F4803F0CD0094B5B68D0
:100F7C00C3F34043634413F8143C074800FB02F0EE
:100F8C00B0FBF3F0E8E7054800FB02F0E4E700BF34
:100F9C000C1700080010024000127A0000093D00F6
:100FAC00002800F0A08070B50D460446524B1B681B
:100FBC0003F007038B420BD24F4A136823F007034D
:100FCC000B431360136803F007038B4240F08D80D2
:100FDC00236813F0020F17D013F0040F04D0474A04
:100FEC00536843F4E0635360236813F0080F04D094
:100FFC00424A536843F460535360404A536823F0A9
:10100C00F003A1680B435360236813F0010F31D038
:10101C006368012B20D0022B25D0384A126812F0BD
:10102C00020F64D035494A6822F0030213434B6027
:10103C00FFF75CFD0646314B5B6803F00C036268FE
:10104C00B3EB820F16D0FFF751FD801B41F28833B2
:10105C009842F0D9032045E0284A126812F4003F68
:10106C00E0D101203EE0254A126812F0007FD9D170
:10107C00012037E0204B1B6803F00703AB420AD971
:10108C001D4A136823F007032B431360136803F006
:10109C000703AB422DD1236813F0040F06D0174A77
:1010AC00536823F4E063E1680B435360236813F047
:1010BC00080F07D0114A536823F46053216943EA9F
:1010CC00C1035360FFF736FF0C4B5B68C3F303138C
:1010DC000B4AD35CD8400B4B18600B4B1868FFF7CE
:1010EC00C1FC002070BD012070470120FAE70120EF
:1010FC00F8E70120F6E700BF002002400010024094
:10110C00201700080800002004000020F0B482B072
:10111C0000252C4686E07D4FBB4210D007D97C4F72
:10112C00BB420CD007F58037BB4208D015E0A7F5C1
:10113C008017BB4203D007F57027BB4209D18B68DF
:10114C00002B00F0B980012B00F0B1804261082522
:10115C0003E0A7F58017BB42F1D0FF2E00F2AE8062
:10116C008446FF2E00F2AD80A200DCF800300F2781
:10117C00974023EA070305FA02F21343CCF8003038
:10118C004B6813F0805F4CD0624B9A6942F00102BD
:10119C009A619B6903F001030193019BA208971CC0
:1011AC005D4B53F8273004F00307BF004FF00F0CD2
:1011BC000CFA07FC23EA0C0C584B984200F0878081
:1011CC0003F58063984200F0848003F580639842B5
:1011DC007BD00323BB4043EA0C0302324E4F47F84B
:1011EC0022304B6813F4803F75D04D4A136833435B
:1011FC0013604B6813F4003F73D0494A5368334370
:10120C0053604B6813F4801F71D0454A9368334385
:10121C0093604B6813F4001F6FD0414AD3681E4390
:10122C00D66001340B6833FA04F26CD00122A24070
:10123C0003EA020632EA0303F3D14B68122B3FF6A2
:10124C006AAF122B89D801A757F823F04B1100086D
:10125C00A5120008AF120008C1120008671100089F
:10126C006711000867110008671100086711000872
:10127C006711000867110008671100086711000862
:10128C006711000867110008671100086711000852
:10129C00A9120008B5120008CD685EE7CD680435C8
:1012AC005BE7CD68083558E7CD680C3555E702612A
:1012BC00082552E7002550E704254EE700F1040C01
:1012CC004FE7A4F1080292004FE7022382E70023C4
:1012DC0080E701237EE7124A136823EA06031360B2
:1012EC0087E70F4A536823EA0603536089E70C4AE1
:1012FC00936823EA060393608BE7094AD36823EAD1
:10130C000606D6608DE702B0F0BC704700002210D4
:10131C0000003110001002400000014000080140A4
:10132C000004014008B5054B5B69034200D108BDC0
:10133C00024B586100F064F9F9E700BF000401406A
:10134C00074AD36823F4E0631B041B0C000200F46F
:10135C00E060034343F0BF6343F40033D360704752
:10136C0000ED00E030B4174BDB68C3F30223C3F18C
:10137C000704042C28BF04241D1D062D18D9033B7B
:10138C004FF0FF3505FA04F421EA0401994005FAFF
:10139C0003F322EA0303194300280BDB0901C9B24A
:1013AC0000F1604000F5614080F8001330BC7047DC
:1013BC000023E5E700F00F000901C9B2024B1954F4
:1013CC00F4E700BF00ED00E014ED00E0002807DBBF
:1013DC0000F01F02400901239340024A42F82030DA
:1013EC00704700BF00E100E00138B0F1807F0AD205
:1013FC00064B5860064AF02182F8231000209860B2
:10140C0007221A6070470120704700BF10E000E00F
:10141C0000ED00E07047000002680E4B9A4200D0CD
:10142C00704700B583B003F564439A6942F40062D7
:10143C009A619B6903F400630193019B002211469E
:10144C001920FFF78FFF1920FFF7C0FF03B05DF8DD
:10145C0004FB00BF002C014000B587B000230293B1
:10146C0003930493059302680D4B9A4202D007B084
:10147C005DF804FB03F564439A6942F004029A6137
:10148C009B6903F004030193019B4FF48073029357
:10149C0002230393059302A90248FFF737FEE6E700
:1014AC00002C01400008014010B596B000241294A5
:1014BC001394149415941094119409940A940B9405
:1014CC000C940D940E940F942022214601A800F048
:1014DC0003F92D482D4B036041F63F734360846044
:1014EC000923C360046144618461FFF779F8002823
:1014FC0038D14FF48053129312A92348FFF76DF99A
:10150C00002832D12048FFF797F8002830D100236B
:10151C001093119310A91C48FFF748FA58BB60238D
:10152C00099300220A9202230B930C920D920E92B5
:10153C000F9209A91448FFF7DDF8F8B900230193BD
:10154C0002930393049305934FF40052069208936D
:10155C0001A90D48FFF75AFA98B90B48FFF77CFF21
:10156C0016B010BDFEF722FEC3E7FEF71FFEC9E75B
:10157C00FEF71CFECBE7FEF719FED0E7FEF716FED2
:10158C00DCE7FEF713FEE8E730000020002C0140FA
:10159C0010B586B000240594164B9A6942F00802E7
:1015AC009A619A6902F008020092009A9A6942F0D4
:1015BC0004029A619B6903F004030193019B0323CA
:1015CC0002930D4B0393049402A90C48FFF79EFD64
:1015DC00224621460620FFF7C5FE0620FFF7F6FE41
:1015EC00224621460720FFF7BDFE0720FFF7EEFE3F
:1015FC0006B010BD0010024000001110000C01409C
:10160C00012802D002280DD070470C4B1B68092B07
:10161C0003D80A4A136801331360084B1A68084B45
:10162C005A637047054B1B681BB1044A1368013B96
:10163C001360024B1A68024B5A6370472800002053
:10164C00002C0140002103E00B4B5B58435004314C
:10165C000A480B4B42189A42F6D30A4A02E000237E
:10166C0042F8043B084B9A42F9D3FFF7D3FE00F043
:10167C000FF8FEF787FD70473817000800000020B0
:10168C000C0000200C00002078000020FEE7000079
:10169C0070B500260C4D0D4C641BA410A64209D14C
:1016AC0000F022F800260A4D0A4C641BA410A64236
:1016BC0005D170BD55F8043B98470136EEE755F857
:1016CC00043B98470136F2E7301700083017000842
:1016DC00301700083417000803460244934200D127
:1016EC00704703F8011BF9E7F8B500BFF8BC08BC5C
:1016FC009E467047F8B500BFF8BC08BC9E467047C4
:10170C0002030405060708090A0B0C0D0E0F101036
:10171C0000000000000000000000000001020304B3
:04172C00060708099B
:04173000310100087B
:041734000D0100089B
:0C17380001000000100000000024F4007C
:040000050800165188
:00000001FF
