:020000040800F2
:1000000000280020C5120008550300085703000807
:10001000590300085B0300085D03000800000000AE
:100020000000000000000000000000005F03000866
:100030006103000800000000630300086503000876
:100040000D1300080D1300080D1300080D13000810
:100050000D1300080D1300080D1300080D13000800
:100060000D1300080D1300080D1300080D130008F0
:100070000D1300080D1300080D1300080D130008E0
:100080000D1300080D1300080D1300080D130008D0
:100090000D1300080D1300080D1300080D130008C0
:1000A0000D1300086D0300080D1300080D13000860
:1000B0000D1300087D030008000000000D13000868
:1000C0000D13000800000000000000000D130008E0
:1000D000000000000D1300080D13000800000000D0
:1000E0000D1300080D1300080D1300080000000098
:1000F0000000000000000000000000000000000000
:0C01000000000000000000005FF808F1A3
:10010C0010B5054C237833B9044B13B10448AFF345
:10011C0000800123237010BD10000020000000009F
:10012C006813000808B5034B1BB103490348AFF330
:10013C00008008BD000000001400002068130008B7
:10014C0010B590B02422002107A801F0FFF800247C
:10015C0001940294039404940594022306930123BE
:10016C000A9310230B9306A800F0F2FB0F230193C4
:10017C000294039404940594214601A800F026FEF1
:10018C0010B010BD08B500F0A9FBFFF7D9FF00F0C7
:10019C0009F800F02FF800F067F801F055F8FEE7C9
:1001AC007047000030B587B0002402940394049487
:1001BC0005940E4B9A6942F008029A619B6903F010
:1001CC0008030193019B0A4D22460321284600F0A7
:1001DC00BFFF03230293012303930494022305938B
:1001EC0002A9284600F0A8FE07B030BD001002405E
:1001FC00000C014000B587B00023029303930493D5
:10020C000593009301931648164A026040F2E732B8
:10021C004260836041F63F72C26003614361836157
:10022C0000F060FA90B94FF48053029302A90C4885
:10023C0000F08FFA68B900230093019369460848CF
:10024C0000F0F4FA40B907B05DF804FBFFF7A8FF23
:10025C00E9E7FFF7A5FFEEE7FFF7A2FFF3E700BF23
:10026C0074000020002C014000B587B000230293DD
:10027C00039304930593009301931548154A026068
:10028C0040F2E7324260836040F69F72C2600361C5
:10029C00836100F027FA90B94FF48053029302A9BE
:1002AC000B4800F056FA68B9002300930193694695
:1002BC00074800F0BBFA40B907B05DF804FBFFF744
:1002CC006FFFE9E7FFF76CFFEEE7FFF769FFF3E776
:1002DC002C0000200004004000B583B00368174ACE
:1002EC00934205D0164A934215D003B05DF804FB37
:1002FC00144B9A6942F400629A619B6903F400639F
:10030C000093009B00221146192000F043FF192096
:10031C0000F074FFE9E70B4BDA6942F00202DA6194
:10032C00DB6903F002030193019B002211461D209F
:10033C0000F030FF1D2000F061FFD6E7002C0140DB
:10034C0000040040001002407047FEE7FEE7FEE7A5
:10035C00FEE770477047704708B500F0D1FA08BD4A
:10036C0008B5024800F0CEF808BD00BF74000020AC
:10037C0008B5024800F0C6F808BD00BF2C000020EC
:10038C0082B00E4B9A6942F001029A619A6902F0AE
:10039C0001020092009ADA6942F08052DA61DB695C
:1003AC0003F080530193019B054A536823F0E063EB
:1003BC0043F08063536002B0704700BF00100240EE
:1003CC000000014030B4036A056A25F0010505629E
:1003DC00846924F0F00444EA021423F00A030B436A
:1003EC008461036230BC704730B4056A25F0100597
:1003FC0005628469036A24F4704444EA023423F0ED
:10040C00A00343EA01138461036230BC7047836824
:10041C0023F070030B4343F0070383607047000025
:10042C0090F83D30DBB2012B1ED1022380F83D3019
:10043C0003680F4A93420CD0B3F1804F09D0A2F558
:10044C009432934205D01A6842F001021A600020DF
:10045C0070479A6802F00702062A07D01A6842F021
:10046C0001021A600020704701207047002070477D
:10047C00002C01400368196A41F21112114208D193
:10048C00196A40F24442114203D11A6822F0010267
:10049C001A60012380F83D300020704790F83D3001
:1004AC00DBB2012B23D1022380F83D300268D368E4
:1004BC0043F00103D36003680F4A93420CD0B3F1AD
:1004CC00804F09D0A2F59432934205D01A6842F0BD
:1004DC0001021A60002070479A6802F00702062A8F
:1004EC0007D01A6842F001021A6000207047012000
:1004FC0070470020704700BF002C014070477047C8
:10050C007047704710B5044603681A6912F0020F61
:10051C0011D0DA6812F0020F0DD06FF002021A61DE
:10052C000123037703689B6913F0030F70D0FFF767
:10053C00E6FF0023237723681A6912F0040F12D008
:10054C00DA6812F0040F0ED06FF004021A61022365
:10055C00237723689B6913F4407F5FD02046FFF715
:10056C00CEFF0023237723681A6912F0080F12D0EC
:10057C00DA6812F0080F0ED06FF008021A6104232B
:10058C0023772368DB6913F0030F4ED02046FFF767
:10059C00B6FF0023237723681A6912F0100F12D0CC
:1005AC00DA6812F0100F0ED06FF010021A610823E7
:1005BC0023772368DB6913F4407F3DD02046FFF797
:1005CC009EFF0023237723681A6912F0010F03D0D2
:1005DC00DA6812F0010F36D123681A6912F0800F15
:1005EC0003D0DA6812F0800F34D123681A6912F044
:1005FC00400F03D0DA6812F0400F32D123681A6929
:10060C0012F0200F03D0DA6812F0200F30D110BD99
:10061C00FFF774FF2046FFF773FF8AE72046FFF7CA
:10062C006DFF2046FFF76CFF9BE72046FFF766FF48
:10063C002046FFF765FFACE72046FFF75FFF20463B
:10064C00FFF75EFFBDE76FF001021A61204600F074
:10065C0023FEC1E76FF080021A61204600F017F903
:10066C00C3E76FF040021A612046FFF74AFFC5E767
:10067C006FF020021A61204600F008F9C7E700006D
:10068C000368174A904206D0B0F1804F03D0A2F510
:10069C009432904203D123F070034A681343104AFA
:1006AC00904206D0B0F1804F03D0A2F59432904224
:1006BC0003D123F44073CA68134323F080034A69BF
:1006CC00134303608B68C3620B688362044B9842CC
:1006DC0002D00123436170470B690363F9E700BF44
:1006EC00002C014040B310B5044690F83D30F3B1F6
:1006FC00022384F83D30214651F8040BFFF7C0FF6C
:10070C00012384F8463084F83E3084F83F3084F876
:10071C00403084F8413084F8423084F8433084F817
:10072C00443084F8453084F83D30002010BD80F80A
:10073C003C30FFF7D1FDDBE70120704710B4846833
:10074C0024F47F4442EA03220A432243826010BC11
:10075C00704790F83C30012B66D010B5044601234D
:10076C0080F83C30022380F83D300268936823F413
:10077C007F4323F0770393600B68602B40D022D823
:10078C00402B47D00BD9502B0ED1CA684968006852
:10079C00FFF718FE50212068FFF739FE04E0202BEC
:1007AC000CD008D9302B09D0012384F83D3000201F
:1007BC0084F83C0010BD0BB1102BF5D11946206804
:1007CC00FFF725FEF0E7702B0ED0B3F5005FEBD1F1
:1007DC00CB684A6889680068FFF7B0FF22689368A5
:1007EC0043F480439360DFE7CB684A68896800680C
:1007FC00FFF7A4FF2268936843F077039360D3E775
:10080C00CA6849680068FFF7EFFD60212068FFF7B0
:10081C00FEFDC9E7CA6849680068FFF7D3FD4021AF
:10082C002068FFF7F4FDBFE70220704790F83C30DA
:10083C00012B27D030B4012380F83C30022380F800
:10084C003D3003685C689D6824F070040A6822439C
:10085C005A6003680C4A934206D0B3F1804F03D020
:10086C00A2F59432934204D125F080054A681543D1
:10087C009D60012380F83D30002380F83C30184601
:10088C0030BC704702207047002C01407047704705
:10089C0010B504460E4B18784FF47A73B3FBF0F393
:1008AC000C4A1068B0FBF3F000F0B6FC68B90F2CE2
:1008BC0001D901200AE0002221464FF0FF3000F060
:1008CC0069FC054B1C60002000E0012010BD00BF3E
:1008DC0000000020080000200400002008B5074A92
:1008EC00136843F010031360032000F041FC002058
:1008FC00FFF7CEFFFFF744FD002008BD00200240AB
:10090C00034A1168034B1B780B441360704700BFFC
:10091C00BC00002000000020014B1868704700BF8D
:10092C00BC00002082B0084B1B68084AA2FB0323C2
:10093C005B0A00FB03F3019300BF019B5A1E01925B
:10094C00002BF9D102B0704708000020D34D621083
:10095C00002800F0F18170B582B00446036813F0F2
:10096C00010F2CD0AA4B5B6803F00C03042B1DD099
:10097C00A74B5B6803F00C03082B12D06368B3F52C
:10098C00803F41D0002B55D103F1804303F5043354
:10099C001A6822F480321A601A6822F480221A60D3
:1009AC0037E09B4B5B6813F4803FE7D0984B1B6898
:1009BC0013F4003F03D06368002B00F0BF81236861
:1009CC0013F0020F75D0924B5B6813F00C0F5FD0D5
:1009DC008F4B5B6803F00C03082B54D02369002B5E
:1009EC0000F089808B4B01221A60FFF795FF0546BA
:1009FC00874B1B6813F0020F74D1FFF78DFF401B60
:100A0C000228F5D903209EE1814A136843F4803310
:100A1C001360636843B3FFF77FFF05467C4B1B688D
:100A2C0013F4003FCBD1FFF777FF401B6428F5D9B7
:100A3C00032088E1B3F5A02F09D0754B1A6822F476
:100A4C0080321A601A6822F480221A60E1E703F1FE
:100A5C008043A3F53C331A6842F480221A601A686A
:100A6C0042F480321A60D4E7FFF756FF0546684B14
:100A7C001B6813F4003FA2D0FFF74EFF401B642805
:100A8C00F5D903205FE1624B5B6813F4803FA5D17D
:100A9C005F4B1B6813F0020F03D02369012B40F04E
:100AAC004F815B4A136823F0F803616943EAC10381
:100ABC001360236813F0080F32D0A369002B45D0C4
:100ACC00554B01221A60FFF727FF0546504B5B6A16
:100ADC0013F0020F21D1FFF71FFF401B0228F5D99D
:100AEC00032030E14A4A136823F0F803616943EAB2
:100AFC00C1031360DDE7474B00221A60FFF70CFFC0
:100B0C000546434B1B6813F0020FD2D0FFF704FFCE
:100B1C00401B0228F5D9032015E10120FFF702FF45
:100B2C00236813F0040F00F09780394BDB6913F046
:100B3C00805F1DD1364BDA6942F08052DA61DB6995
:100B4C0003F080530193019B012512E0324B0022EC
:100B5C001A60FFF7E1FE05462D4B5B6A13F0020F9E
:100B6C00DED0FFF7D9FE401B0228F5D90320EAE0BE
:100B7C0000252A4B1B6813F4807F11D0E368012BEE
:100B8C0022D0002B38D103F1804303F504331A6AC9
:100B9C0022F001021A621A6A22F004021A6218E0A8
:100BAC001E4A136843F480731360FFF7B5FE0646C4
:100BBC001A4B1B6813F4807FE0D1FFF7ADFE801B4E
:100BCC006428F5D90320BEE0114A136A43F00103EF
:100BDC001362E36873B3FFF79FFE06460C4B1B6A68
:100BEC0013F0020F37D1FFF797FE801B41F28833C9
:100BFC009842F3D90320A6E0052B11D0044B1A6AB6
:100C0C0022F001021A621A6A22F004021A62E0E768
:100C1C00001002400000424280044242007000403A
:100C2C004D4B1A6A42F004021A621A6A42F001022F
:100C3C001A62CEE7FFF770FE0646474B1B6A13F0AD
:100C4C00020F08D0FFF768FE801B41F288339842F0
:100C5C00F3D9032077E0E5B9E369002B72D03E4A63
:100C6C00526802F00C02082A56D0022B17D03B4BCC
:100C7C0000221A60FFF750FE0446374B1B6813F036
:100C8C00007F47D0FFF748FE001B0228F5D9032050
:100C9C0059E0314AD36923F08053D361DCE72F4B01
:100CAC0000221A60FFF738FE05462B4B1B6813F029
:100CBC00007F06D0FFF730FE401B0228F5D9032039
:100CCC0041E0236AB3F5803F1AD023494B6823F4E3
:100CDC007413226A606A024313434B601F4B012258
:100CEC001A60FFF719FE04461B4B1B6813F0007FBC
:100CFC000ED1FFF711FE001B0228F5D9032022E0CC
:100D0C00154A536823F40033A1680B435360DCE7A6
:100D1C00002018E0002016E0012B16D00E4B5B686B
:100D2C0003F48031226A914211D103F47013626A88
:100D3C0093420ED1002006E001207047012002E012
:100D4C00012000E0002002B070BD0120FBE7012073
:100D5C00F9E70120F7E700BF0010024060004242B3
:100D6C0086B0164B0FCB0DF1180C0CE90F0040F2AE
:100D7C000123ADF80430124B5B6803F00C02082A17
:100D8C0002D0104806B07047C3F38342624412F895
:100D9C00102C13F4803F0CD0094B5B68C3F3404319
:100DAC00634413F8143C074800FB02F0B0FBF3F06B
:100DBC00E8E7054800FB02F0E4E700BF80130008F9
:100DCC000010024000127A0000093D00002800F0DB
:100DDC00A08070B50D460446524B1B6803F0070308
:100DEC008B420BD24F4A136823F007030B4313605B
:100DFC00136803F007038B4240F08D80236813F0D7
:100E0C00020F17D013F0040F04D0474A536843F471
:100E1C00E0635360236813F0080F04D0424A536810
:100E2C0043F460535360404A536823F0F003A168C5
:100E3C000B435360236813F0010F31D06368012B0F
:100E4C0020D0022B25D0384A126812F0020F64D041
:100E5C0035494A6822F0030213434B60FFF75CFDEF
:100E6C000646314B5B6803F00C036268B3EB820FF0
:100E7C0016D0FFF751FD801B41F288339842F0D910
:100E8C00032045E0284A126812F4003FE0D101200B
:100E9C003EE0254A126812F0007FD9D1012037E0DC
:100EAC00204B1B6803F00703AB420AD91D4A136899
:100EBC0023F007032B431360136803F00703AB42C3
:100ECC002DD1236813F0040F06D0174A536823F46E
:100EDC00E063E1680B435360236813F0080F07D0FD
:100EEC00114A536823F46053216943EAC1035360E8
:100EFC00FFF736FF0C4B5B68C3F303130B4AD35C51
:100F0C00D8400B4B18600B4B1868FFF7C1FC002046
:100F1C0070BD012070470120FAE70120F8E701209D
:100F2C00F6E700BF002002400010024094130008B6
:100F3C000800002004000020F0B482B000252C46EC
:100F4C0086E07D4FBB4210D007D97C4FBB420CD002
:100F5C0007F58037BB4208D015E0A7F58017BB42D8
:100F6C0003D007F57027BB4209D18B68002B00F02A
:100F7C00B980012B00F0B1804261082503E0A7F590
:100F8C008017BB42F1D0FF2E00F2AE808446FF2EBC
:100F9C0000F2AD80A200DCF800300F27974023EA66
:100FAC00070305FA02F21343CCF800304B6813F038
:100FBC00805F4CD0624B9A6942F001029A619B6946
:100FCC0003F001030193019BA208971C5D4B53F89E
:100FDC00273004F00307BF004FF00F0C0CFA07FC8E
:100FEC0023EA0C0C584B984200F0878003F5806381
:100FFC00984200F0848003F5806398427BD00323F1
:10100C00BB4043EA0C0302324E4F47F822304B6888
:10101C0013F4803F75D04D4A1368334313604B680B
:10102C0013F4003F73D0494A5368334353604B6801
:10103C0013F4801F71D0454A9368334393604B6817
:10104C0013F4001F6FD0414AD3681E43D66001349D
:10105C000B6833FA04F26CD00122A24003EA0206B8
:10106C0032EA0303F3D14B68122B3FF66AAF122B13
:10107C0089D801A757F823F0770F0008D110000882
:10108C00DB100008ED100008930F0008930F000808
:10109C00930F0008930F0008930F0008930F00089C
:1010AC00930F0008930F0008930F0008930F00088C
:1010BC00930F0008930F0008930F0008D510000839
:1010CC00E1100008CD685EE7CD6804355BE7CD68BC
:1010DC00083558E7CD680C3555E70261082552E70D
:1010EC00002550E704254EE700F1040C4FE7A4F16E
:1010FC00080292004FE7022382E7002380E70123D6
:10110C007EE7124A136823EA0603136087E70F4A47
:10111C00536823EA0603536089E70C4A936823EA71
:10112C00060393608BE7094AD36823EA0606D66068
:10113C008DE702B0F0BC70470000221000003110A7
:10114C000010024000000140000801400004014072
:10115C000AB101617047090401617047C36801EA73
:10116C00030221EA030141EA0241016170470000D8
:10117C00074AD36823F4E0631B041B0C000200F441
:10118C00E060034343F0BF6343F40033D360704724
:10119C0000ED00E030B4174BDB68C3F30223C3F15E
:1011AC000704042C28BF04241D1D062D18D9033B4D
:1011BC004FF0FF3505FA04F421EA0401994005FAD1
:1011CC0003F322EA0303194300280BDB0901C9B21C
:1011DC0000F1604000F5614080F8001330BC7047AE
:1011EC000023E5E700F00F000901C9B2024B1954C6
:1011FC00F4E700BF00ED00E014ED00E0002807DB91
:10120C0000F01F02400901239340024A42F82030AB
:10121C00704700BF00E100E00138B0F1807F0AD2D6
:10122C00064B5860064AF02182F823100020986083
:10123C0007221A6070470120704700BF10E000E0E1
:10124C0000ED00E07047000010B5104B1868FFF778
:10125C00E7F8002408E00E4B6FF001021A6101213F
:10126C000C48FFF77BFF0134042C07DC074B1B6891
:10127C001B681B6913F0010FF8D0ECE7034C2068D6
:10128C00FFF7F8F82068FFF709F910BD0C000020F3
:10129C00002C0140000C014008B50268044B1B688F
:1012AC009A4200D008BD02210248FFF757FFF9E728
:1012BC0074000020000C0140002103E00B4B5B5834
:1012CC00435004310A480B4B42189A42F6D30A4A4F
:1012DC0002E0002342F8043B084B9A42F9D3FFF793
:1012EC00B1FF00F00FF8FEF74DFF7047AC1300088C
:1012FC00000000201000002010000020C000002082
:10130C00FEE7000070B500260C4D0D4C641BA410BC
:10131C00A64209D100F022F800260A4D0A4C641BA3
:10132C00A410A64205D170BD55F8043B9847013670
:10133C00EEE755F8043B98470136F2E7A413000892
:10134C00A4130008A4130008A813000803460244C1
:10135C00934200D1704703F8011BF9E7F8B500BFC1
:10136C00F8BC08BC9E467047F8B500BFF8BC08BC7A
:04137C009E467047D2
:1013800002030405060708090A0B0C0D0E0F1010C6
:101390000000000000000000000000000102030443
:0413A000060708092B
:0413A400310100080B
:0413A8000D0100082B
:1013AC0001000000100000000024F4007400002074
:04000005080012C518
:00000001FF
